:020000040800F2
:10000000385000202902000849160008CD150008C4
:100010004516000821050008191A00080000000014
:100020000000000000000000000000003117000880
:100030002505000800000000C1160008751700081B
:10004000430200084302000843020008430200087C
:10005000430200084302000843020008430200086C
:10006000430200084302000843020008430200085C
:10007000430200084302000843020008430200084C
:10008000430200084302000843020008430200083C
:10009000430200084302000843020008430200082C
:1000A000430200084302000843020008430200081C
:1000B000430200084302000843020008430200080C
:1000C00043020008430200084302000843020008FC
:1000D00043020008430200084302000843020008EC
:1000E00043020008430200084302000843020008DC
:1000F00043020008430200084302000843020008CC
:1001000043020008430200084302000843020008BB
:100110004302000843020008651800084302000873
:10012000430200084302000843020008430200089B
:10013000430200084302000843020008430200088B
:10014000430200084302000843020008430200087B
:10015000430200084302000843020008430200086B
:10016000430200084302000843020008430200085B
:100170004302000843020008430200080000000098
:10018000430200084302000800F002F800F03CF8C7
:100190000AA090E8000C82448344AAF10107DA45E2
:1001A00001D100F031F8AFF2090EBAE80F0013F0F8
:1001B000010F18BFFB1A43F001031847CC4C000095
:1001C000EC4C0000103A24BF78C878C1FAD8520726
:1001D00024BF30C830C144BF04680C6070470000C1
:1001E0000023002400250026103A28BF78C1FBD840
:1001F000520728BF30C148BF0B6070471FB504F0DD
:10020000EBFD1FBD10B510BD00F04FF91146FFF713
:10021000F5FF01F0B3FC00F06DF903B4FFF7F2FF56
:1002200003BC00F075F90000094880470948004701
:10023000FEE7FEE7FEE7FEE7FEE7FEE7FEE7FEE796
:10024000FEE7FEE704480549054A064B70470000F3
:100250005118000889010008384A00203850002051
:10026000384C0020384C002053EA020C00F0698022
:100270002DE9F04B4FF00006002B1FBFB3FA83F5BA
:1002800003FA05F424FA05F65E4012BF1643B2FAEB
:1002900082F502FA05F4C5F120051EBF22FA05FC1D
:1002A00044EA0C04203556EA044C4FEA144418BFC3
:1002B000641C4FF000084FF00009904271EB030CF2
:1002C00039D3002919BFB1FA81F701FA07F6B0FA5C
:1002D00080F700FA07F6C7F120071EBF20FA07FCD7
:1002E00046EA0C062037B6FBF4FCA7EB0507103FE7
:1002F00007F01F0BCBF120062CFA06F60CFA0BFBCD
:1003000044BFB3460026202FA4BF5E464FF0000B2B
:100310005BEA060C08BF4FF0010B19EB0B0948EB29
:100320000608ABFB027C06FB02CC0BFB03CCC01B1C
:1003300071EB0C01C1E70B46024641464846BDE859
:10034000F08B13B5084318BF4FF0FF300146AFF3F1
:100350000080BDE81C407047032A40F2308010F056
:10036000030C00F0158011F8013BBCF1020F624450
:1003700098BF11F801CB00F8013B38BF11F8013BE1
:10038000A2F1040298BF00F801CB38BF00F8013B8E
:1003900011F0030300F05780083AC0F0088051F8CC
:1003A000043B083A51F804CBA0E80810F5E7121D09
:1003B0005CBF51F8043B40F8043BAFF30080D20728
:1003C00024BF11F8013B11F801CB48BF11F8012BF4
:1003D00024BF00F8013B00F801CB48BF00F8012B17
:1003E000704702F0FF0343EA032242EA024200F0B0
:1003F00002B84FF0000200B51346944696462039E5
:1004000022BFA0E80C50A0E80C50B1F12001BFF4CD
:10041000F7AF090728BFA0E80C5048BF0CC05DF833
:1004200004EB890028BF40F8042B08BF704748BF81
:1004300020F8022B11F0804F18BF00F8012B7047F5
:1004400070477047704710B5203AC0F00B80B1E894
:100450001850A0E81850B1E81850A0E81850203AF9
:10046000BFF4F5AF5FEA027C24BFB1E81850A0E802
:10047000185044BF18C918C0BDE810405FEA827C1C
:1004800024BF51F8043B40F8043B08BF7047D20733
:1004900028BF31F8023B48BF11F8012B28BF20F8D4
:1004A000023B48BF00F8012B7047754600F02CF85E
:1004B000AE4605006946534620F00700854618B051
:1004C00020B5FFF7BFFEBDE820404FF000064FF01B
:1004D00000074FF000084FF0000BAC46ACE8C00935
:1004E000ACE8C009ACE8C009ACE8C00921F00701DC
:1004F0008D46704710B50446AFF300802046BDE836
:100500001040FFF78ABE0000004870472800002016
:1005100001491820ABBEFEE726000200704700002C
:10052000FFE7FEE77047000072B6FFE7FEE7000056
:1005300044F25C20C2F200000068704740F21C00E8
:10054000C2F20000027844F25C21C2F200010868A5
:10055000104408607047000080B543F60041C4F2C3
:100560000201086840F400700860086840F4806088
:100570000860086840F480700860032000F0D0F83C
:100580000F2000F005F800F07BF8002080BD00008F
:1005900080B58CB00B90002004900390FFE7002002
:1005A000009043F64000C4F20200016841F01001DF
:1005B0000160006800F0100000900098FFE706A8B6
:1005C00002A900F0E7F909980490049820B9FFE720
:1005D00000F010FA059004E000F00CFA40000590DD
:1005E000FFE705984DF68361C4F21B31A0FB0101C2
:1005F0004FF0FF3000EB9140039040F29000C2F2C8
:10060000000041F20001C4F20001016040F2E73154
:10061000C16003994160002101618160816100F046
:10062000D7FD8DF807009DF8070028BBFFE740F2D3
:100630009000C2F2000000F01DFE8DF807009DF84A
:100640000700C0B9FFE7362000F046F80B980F28E6
:100650000CD8FFE70B993620002200F047F80B98E2
:1006600040F22001C2F20001086003E001208DF891
:100670000700FFE7FFE7FFE79DF807000CB080BD2C
:1006800080B582B0FFE70020019043F64400C4F239
:100690000200016841F480410160006800F480407C
:1006A00001900198FFE7FFE70020009043F640002B
:1006B000C4F20200016841F080510160006800F05E
:1006C000805000900098FFE76FF001000F2100229A
:1006D00000F00CF802B080BD80B582B08DF8070044
:1006E0009DF9070001F0C8F902B080BD80B586B061
:1006F0008DF81700049103920020029001F0D4F9C4
:1007000002909DF91700019002980499039A00F055
:100710009DFF0146019801F0CFF906B080BD0000B1
:1007200080B582B00190019801F00AFA02B080BD54
:1007300080B584B002900191029820B9FFE70120B2
:100740008DF80F0021E1019843F60041C4F2020147
:10075000096801F00701884212D9FFE7019943F6C1
:100760000040C4F202000170006800F00700019927
:10077000884204D0FFE701208DF80F0005E1FFE774
:1007800002980078800700282AD5FFE702980078B1
:100790004007002809D5FFE743F60801C4F202012B
:1007A000086840F4E0500860FFE70298007800070E
:1007B000002809D5FFE743F60801C4F202010868E2
:1007C00040F460400860FFE743F60801C4F202010C
:1007D000086820F0F000029A926810430860FFE772
:1007E00002980078C00700286ED0FFE702984068A2
:1007F000012811D1FFE743F60000C4F202000068AF
:1008000000F400310020B0EB514F04D1FFE701208C
:100810008DF80F00B9E02CE002984068022805D05E
:10082000FFE702984068032811D1FFE743F6000074
:10083000C4F20200006800F000710020B0EB516FBC
:1008400004D1FFE701208DF80F009EE010E043F691
:100850000000C4F20200006800F002010020B0EBCA
:10086000510F04D1FFE701208DF80F008DE0FFE765
:10087000FFE743F60801C4F20201086820F0030014
:10088000029A526810430860FFF752FE0090FFE79B
:1008900043F60800C4F20200006800F00C00029960
:1008A0004968B0EB810F0ED0FFE7FFF741FE0099DA
:1008B000401A41F28931884204D3FFE703208DF8C2
:1008C0000F0062E0E4E7FFE7019843F60041C4F25D
:1008D0000201096801F00701884212D2FFE701997D
:1008E00043F60040C4F202000170006800F0070007
:1008F0000199884204D0FFE701208DF80F0044E001
:10090000FFE702980078400700280CD5FFE743F680
:100910000801C4F20201086820F4E050029AD2688B
:1009200010430860FFE702980078000700280DD503
:10093000FFE743F60801C4F20201086820F46040B2
:10094000029A126940EAC2000860FFE700F064F80A
:1009500043F60801C4F202010968C9B20A0944F663
:10096000F251C0F60001895CC84040F20001C2F2B9
:100970000001086040F22000C2F200000068FFF7AA
:1009800007FE00208DF80F00FFE79DF80F0004B070
:1009900080BD000082B00190009101990F20086095
:1009A00043F60800C4F20200016801F00301019A55
:1009B0005160016801F0F001019A9160016801F451
:1009C000E051019AD160006800F46040C0080199CC
:1009D000086143F60040C4F20200006800F007001E
:1009E0000099086002B0704740F20000C2F20000B7
:1009F0000068704780B5FFF7F7FF43F60801C4F2BF
:100A000002010968C1F3822244F60261C0F60001C6
:100A1000895CC84080BD000080B586B0002005908C
:100A200004900390029043F60800C4F202000068AC
:100A300000F00C000146019140B1FFE70198042845
:100A40000AD0FFE7019808280CD04FE042F200409E
:100A5000C0F2F40002904FE041F60030C0F2B7005F
:100A6000029049E043F60400C4F20200016801F07C
:100A70003F01059100684002002813D5FFE743F6C7
:100A80000400C4F202000068C0F3881041F600318F
:100A9000C0F2B701A0FB0101059A0023FFF7E4FBB8
:100AA000049012E043F60400C4F202000068C0F3B0
:100AB000881042F20041C0F2F401A0FB0101059A46
:100AC0000023FFF7D1FB0490FFE743F60400C4F2D4
:100AD0000200006800F44031022000EBD1300390A6
:100AE00004980399B0FBF1F0029005E042F2004057
:100AF000C0F2F4000290FFE7029806B080BD00004B
:100B000080B586B00490049820B9FFE701208DF8E5
:100B1000170050E304980078C007002800F0A58073
:100B2000FFE743F60800C4F20200006800F00C0082
:100B3000042813D0FFE743F60800C4F2020000685F
:100B400000F00C0008281ED1FFE743F60400C4F2B1
:100B5000020000684002002815D5FFE743F60000B8
:100B6000C4F20200006800F400310020B0EB514FE5
:100B700008D0FFE70498406820B9FFE701208DF80E
:100B8000170018E370E0FFE704984068B0F5803F75
:100B900009D1FFE743F60001C4F20201086840F4FE
:100BA0008030086020E004984068B0F5A02F0DD197
:100BB000FFE743F60001C4F20201086840F4802018
:100BC0000860086840F4803008600CE043F60001DB
:100BD000C4F20201086820F480300860086820F43C
:100BE00080200860FFE7FFE7FFE704984068E8B16E
:100BF000FFE7FFF79DFC0390FFE743F60000C4F218
:100C00000200006800F400310020B0EB514F0CD11D
:100C1000FFE7FFF78DFC0399401A652804D3FFE72F
:100C200003208DF81700C6E2E7E71CE0FFF780FC21
:100C30000390FFE743F60000C4F20200006800F4EE
:100C400000310020B0EB514F0CD0FFE7FFF770FCF4
:100C50000399401A652804D3FFE703208DF8170095
:100C6000A9E2E7E7FFE7FFE7FFE7049800788007DE
:100C7000002840F19680FFE743F60800C4F2020026
:100C8000006810F00C0F13D0FFE743F60800C4F221
:100C90000200006800F00C0008282CD1FFE743F6A2
:100CA0000400C4F2020000684002002823D4FFE7D9
:100CB00043F60000C4F20200006800F002010020C8
:100CC000B0EB510F09D0FFE70498C068012804D0A9
:100CD000FFE701208DF817006DE243F60001C4F232
:100CE0000201086820F0F800049A126940EAC20084
:100CF0000860FFE754E00498C06870B3FFE7002184
:100D0000C4F2472101200860FFF712FC0390FFE7BF
:100D100043F60000C4F20200006800F00201002067
:100D2000B0EB510F0CD1FFE7FFF702FC0399401A1B
:100D3000032804D3FFE703208DF817003BE2E7E721
:100D400043F60001C4F20201086820F0F800049A9A
:100D5000126940EAC200086021E00021C4F2472184
:100D600000200860FFF7E4FB0390FFE743F6000074
:100D7000C4F20200006800F002010020B0EB510F45
:100D80000CD0FFE7FFF7D4FB0399401A032804D3E4
:100D9000FFE703208DF817000DE2E7E7FFE7FFE725
:100DA000FFE704980078000700284BD5FFE7049878
:100DB000406918B3FFE740F68061C4F24721012083
:100DC0000860FFF7B5FB0390FFE743F67400C4F239
:100DD0000200006800F002010020B0EB510F0CD1BE
:100DE000FFE7FFF7A5FB0399401A032804D3FFE7A9
:100DF00003208DF81700DEE1E7E722E040F680618E
:100E0000C4F2472100200860FFF792FB0390FFE740
:100E100043F67400C4F20200006800F002010020F2
:100E2000B0EB510F0CD0FFE7FFF782FB0399401A9C
:100E3000032804D3FFE703208DF81700BBE1E7E7A1
:100E4000FFE7FFE7049800784007002840F1CE80D4
:100E5000FFE700208DF8070043F64000C4F20200CF
:100E60000068C000002815D4FFE7FFE700200090CD
:100E700043F64000C4F20200016841F08051016075
:100E8000006800F0805000900098FFE701208DF886
:100E90000700FFE747F20000C4F200000068C00549
:100EA000002822D4FFE747F20001C4F200010868DD
:100EB00040F480700860FFF73BFB0390FFE747F2C8
:100EC0000000C4F200000068C00500280CD4FFE751
:100ED000FFF72EFB0399401A032804D3FFE70320F2
:100EE0008DF8170067E1EAE7FFE7FFE704988068FD
:100EF000012809D1FFE743F67001C4F20201086836
:100F000040F0010008601FE00498806805280DD1BA
:100F1000FFE743F67001C4F20201086840F00400E4
:100F20000860086840F0010008600CE043F67001BA
:100F3000C4F20201086820F001000860086820F08F
:100F400004000860FFE7FFE7FFE704988068F8B156
:100F5000FFE7FFF7EDFA0390FFE743F67000C4F2F6
:100F60000200006800F002010020B0EB510F0ED12A
:100F7000FFE7FFF7DDFA0399401A41F28931884211
:100F800004D3FFE703208DF8170014E1E5E71EE026
:100F9000FFF7CEFA0390FFE743F67000C4F20200B9
:100FA000006800F002010020B0EB510F0ED0FFE707
:100FB000FFF7BEFA0399401A41F28931884204D3FF
:100FC000FFE703208DF81700F5E0E5E7FFE79DF860
:100FD0000700012809D1FFE743F64001C4F20201EE
:100FE000086820F080500860FFE7FFE704988069F8
:100FF000002800F0DC80FFE743F60800C4F202009E
:10100000006800F00C00082800F08580FFE70498D5
:10101000806902285CD1FFE76021C4F247210020EB
:101020000860FFF785FA0390FFE743F60000C4F27B
:101030000200006800F000710020B0EB516F0CD08E
:10104000FFE7FFF775FA0399401A032804D3FFE777
:1010500003208DF81700AEE0E7E70499C869D1F8DE
:1010600020C04B6A8A6A40EA0C0040EA8310D2032F
:101070004FF6FF739A43A2F580321043C96A40EAE3
:10108000016043F60401C4F2020108606021C4F269
:10109000472101200860FFF74BFA0390FFE743F672
:1010A0000000C4F20200006800F000710020B0EB04
:1010B000516F0CD1FFE7FFF73BFA0399401A032861
:1010C00004D3FFE703208DF8170074E0E7E721E081
:1010D0006021C4F2472100200860FFF729FA03903D
:1010E000FFE743F60000C4F20200006800F0007160
:1010F0000020B0EB516F0CD0FFE7FFF719FA03990E
:10110000401A032804D3FFE703208DF8170052E0AC
:10111000E7E7FFE74AE004988069012804D1FFE788
:1011200001208DF8170046E043F60400C4F20200E7
:101130000068029004988069012831D0FFE7029886
:1011400000F480000499C969884229D1FFE7029818
:1011500000F03F000499096A884221D1FFE7029814
:1011600047F6C07108400499496AB0EB811F17D156
:10117000FFE7029800F440300499896AC9034FF6EA
:10118000FF729143A1F58031884209D1FFE70298AF
:1011900000F070600499C96AB0EB016F04D0FFE7FA
:1011A00001208DF8170006E0FFE7FFE7FFE70020CA
:1011B0008DF81700FFE79DF8170006B080BD00000E
:1011C00081B0009001B0704781B0009001B07047CD
:1011D00080B582B00090009820B9FFE701208DF81B
:1011E00007003FE0009890F83D0040B9FFE7009904
:1011F000002081F83C00009800F038F8FFE70099E3
:10120000022081F83D00009951F8040B00F032FBF8
:101210000099012081F84600FFE70099012081F83C
:101220003E00009981F83F00009981F84000009944
:1012300081F84100FFE7FFE70099012081F84200B3
:10124000009981F84300009981F84400009981F8E1
:101250004500FFE70099012081F83D0000208DF84E
:101260000700FFE79DF8070002B080BD81B0009045
:1012700001B0704783B00190019890F83D000128BB
:1012800004D0FFE701208DF80B006AE001990220ED
:1012900081F83D0001980168C86840F00100C8600D
:1012A000019800680021C4F2010188423CD0FFE7A8
:1012B00001980068B0F1804F36D0FFE701980068D0
:1012C00040F20041C4F2000188422DD0FFE70198AE
:1012D000006840F60001C4F20001884224D0FFE714
:1012E0000198006840F60041C4F2000188421BD01A
:1012F000FFE70198006840F20041C4F20101884212
:1013000012D0FFE70198006844F20001C4F2010125
:10131000884209D0FFE70198006841F60001C4F255
:101320000001884212D1FFE701980068806800F050
:10133000070000900098062807D0FFE70198016891
:10134000086840F001000860FFE706E001980168C6
:10135000086840F001000860FFE700208DF80B00EE
:10136000FFE79DF80B0003B07047000081B00090CC
:1013700001B0704780B584B0039003980068C068DE
:10138000029003980068006901909DF804008007AE
:10139000002824D5FFE79DF80800800700281DD508
:1013A000FFE7039801686FF00200086103990120CC
:1013B0000877039800688069800720B1FFE70398E9
:1013C000FFF7D4FF06E0039800F0E2F8039800F07E
:1013D000E3F8FFE7039900200877FFE7FFE79DF8B0
:1013E00004004007002825D5FFE79DF808004007C6
:1013F00000281ED5FFE7039801686FF0040008611C
:1014000003990220087703980068806910F4407FF0
:1014100004D0FFE70398FFF7A9FF06E0039800F068
:10142000B7F8039800F0B8F8FFE7039900200877B1
:10143000FFE7FFE79DF804000007002824D5FFE739
:101440009DF80800000700281DD5FFE703980168F4
:101450006FF008000861039904200877039800687A
:10146000C069800720B1FFE70398FFF77FFF06E020
:10147000039800F08DF8039800F08EF8FFE70399C9
:1014800000200877FFE7FFE79DF80400C00600286A
:1014900025D5FFE79DF80800C00600281ED5FFE708
:1014A000039801686FF0100008610399082008771D
:1014B00003980068C06910F4407F04D0FFE70398E8
:1014C000FFF754FF06E0039800F062F8039800F07D
:1014D00063F8FFE7039900200877FFE7FFE79DF82F
:1014E0000400C00778B1FFE79DF80800C00748B1C5
:1014F000FFE7039801686FF001000861039800F0AE
:101500004FF8FFE7FFE79DF804000006002810D51C
:10151000FFE79DF808000006002809D5FFE70398BB
:1015200001686FF0800008610398FFF749FEFFE74C
:10153000FFE79DF804004006002810D5FFE79DF85E
:1015400008004006002809D5FFE7039801686FF0FE
:1015500040000861039800F035F8FFE7FFE79DF8C9
:1015600004008006002810D5FFE79DF808008006DB
:10157000002809D5FFE7039801686FF02000086193
:101580000398FFF721FEFFE7FFE704B080BD0000EE
:1015900081B0009001B0704781B0009001B07047F9
:1015A00080B582B001900198006841F20001C4F258
:1015B0000001884203D1FFE7FEF7C0FFFFE702B05A
:1015C00080BD000081B0009001B07047FFE7FEE7EA
:1015D00080B501F0F5FD41F26570C0F6000044F6FB
:1015E0003062C0F60002002100F0C4FC40F28C0121
:1015F000C2F20001086080BD82B0FFE700200190C8
:1016000043F63000C4F20200016841F001010160BC
:10161000006800F0010001900198FFE7FFE700205B
:10162000009043F63000C4F20200016841F08001EE
:101630000160006800F0800000900098FFE702B0B1
:1016400070470000FFE7FEE7FFE7FEE788B007907E
:1016500006910592079800F0070004900498C0F1E5
:101660000700052803D3FFE70420019004E0049855
:10167000C0F107000190FFE701980390049804303F
:10168000062803D8FFE70020009003E00498033801
:101690000090FFE70098029006980399012202FA51
:1016A00001F101390840029B984005999A40013A9E
:1016B0001140084308B0704700000000000000001F
:1016C000EFF30980BFF36F8F154B1A681EF0100FF0
:1016D00008BF20ED108A20E9F04F10602DE90900C5
:1016E0004FF0500080F31188BFF34F8FBFF36F8F1F
:1016F00002F07CF94FF0000080F31188BDE809008A
:1017000019680868B0E8F04F1EF0100F08BFB0EC81
:10171000108A80F30988BFF36F8F704700BF00BF46
:10172000CC010020000000000000000000000000CC
:10173000074B19680868B0E8F04F80F30988BFF3D9
:101740006F8F4FF0000080F31188704700BF00BF1B
:10175000CC01002080B56FF00400002100F0CEF92C
:1017600080BD000080B582B00190FFE7012000F04D
:1017700017FAFBE780B54EF21000CEF200000068C9
:1017800002F0CEFF012803D0FFE702F03FFAFFE7A7
:1017900080BD000080B594B008A83021FEF729FE76
:1017A000002007900690059004900390FFE700202A
:1017B000029043F64000C4F20200016841F08051FB
:1017C0000160006800F0805002900298FFE7FFE798
:1017D0000020019047F20000C4F20000016841F4CB
:1017E00080410160006800F4804001900198FFE7AB
:1017F0000220089001210B9110210C910E900021E4
:101800000F9108211091A82111911290042013909A
:1018100008A8FFF775F918B1FFE7FEF785FEFFE7A7
:101820000F20039002200490002005904FF4A05058
:1018300006904FF48050079003A80521FEF778FF2B
:1018400018B1FFE7FEF770FEFFE714B080BD00009F
:101850004EF68851CEF20001086840F4700008602E
:101860007047000080B540F29000C2F20000FFF720
:1018700081FD80BD83B002900191029800680090C4
:1018800002980021C4F20101884225D0FFE70298A6
:10189000B0F1804F20D0FFE7029840F20041C4F23F
:1018A0000001884218D0FFE7029840F60001C4F218
:1018B0000001884210D0FFE7029840F60041C4F2D0
:1018C0000001884208D0FFE7029840F20041C4F2CC
:1018D000010188420AD1FFE7009820F070000090D3
:1018E00001984168009808430090FFE702980021A2
:1018F000C4F20101884255D0FFE70298B0F1804F51
:1019000050D0FFE7029840F20041C4F20001884243
:1019100048D0FFE7029840F60001C4F20001884277
:1019200040D0FFE7029840F60041C4F2000188422F
:1019300038D0FFE7029840F20041C4F2010188422A
:1019400030D0FFE7029844F20001C4F2010188425E
:1019500028D0FFE7029844F20041C4F20101884216
:1019600020D0FFE7029844F60001C4F2010188424A
:1019700018D0FFE7029841F60001C4F20001884246
:1019800010D0FFE7029841F60041C4F200018842FE
:1019900008D0FFE7029842F20001C4F20001884239
:1019A0000AD1FFE7009820F4407000900198C168C8
:1019B000009808430090FFE7009820F0800001990C
:1019C000496908430090019880680299C8620198AB
:1019D00000680299886202980021C4F201018842DD
:1019E00008D0FFE7029840F20041C4F201018842AA
:1019F00005D1FFE70198006902990863FFE70299A2
:101A0000086840F0040008600299012048610098CD
:101A10000299086003B07047FFE7FEE782B00190CB
:101A2000FFE740F25060C2F20000006840F24461FB
:101A3000C2F2000100224FF0FF3300F059F9F0E745
:101A400082B00190FFE700F0F1F8009040F24861A9
:101A5000C2F2000108680130086040F25060C2F232
:101A60000000006800231A4600F022FA00980130B6
:101A700000F0B0F8E7E7000081B08DF803009DF9B1
:101A8000030000280ED4FFE79DF9031001F01F02A8
:101A9000012090404A094EF20011CEF2000141F8B7
:101AA0002200FFE701B070474EF60C50CEF2000066
:101AB0000068C0F30220704782B08DF807000091E3
:101AC0009DF9070000280AD4FFE7009800019DF95E
:101AD00007104EF20042CEF2000288540BE000984C
:101AE00000019DF8071001F00F014EF61452CEF2DE
:101AF00000028854FFE702B07047000082B08DF802
:101B0000070000919DF9070000280AD4FFE700981C
:101B100000019DF907104EF20042CEF200028854F7
:101B20000BE0009800019DF8071001F00F014EF640
:101B30001452CEF200028854FFE702B07047000052
:101B400083B00290029800F0070000904EF60C510E
:101B5000CEF200010868019001984FF6FF02104094
:101B600001900198009A40EA02200022C0F2FA5245
:101B7000104301900198086003B0704780B582B0AF
:101B800000200190FEF7E8FCFFF704FEFFF734FDAC
:101B900000F060F8FFF71CFD00F080F8FFE7FEE7BB
:101BA00080B584B00290EFF305800390039820B1D4
:101BB000FFE76FF00500019009E000200190029816
:101BC00020B1FFE7029801F071FDFFE7FFE7019800
:101BD00004B080BD80B586B00490EFF30580059019
:101BE000059820B1FFE76FF0050001901BE0002091
:101BF000019002F0B1FD039004980399401A0290FD
:101C0000029858B1FFE702990020B0EBD17F05D1CF
:101C1000FFE7029903A801F081FD03E06FF00300E4
:101C20000190FFE7FFE7019806B080BD80B582B064
:101C3000EFF305800190019820B1FFE702F096FDD7
:101C4000009003E002F088FD0090FFE7009802B0EA
:101C500080BD000082B0EFF305800190019820B1B3
:101C6000FFE76FF00500009014E040F28800C2F238
:101C70000000006848B9FFE740F28801C2F20001A5
:101C8000012008600020009003E04FF0FF3000903A
:101C9000FFE7FFE7009802B07047000080B582B010
:101CA000EFF305800190019820B1FFE76FF0050088
:101CB000009019E040F28800C2F20000006801289C
:101CC0000DD1FFE7FFF746FD40F28801C2F20001A7
:101CD0000220086001F012FE0020009003E04FF0A7
:101CE000FF300090FFE7FFE7009802B080BD0000E2
:101CF00080B588B0069005910492039306980290EF
:101D000000200190EFF305800790079868B3FFE784
:101D1000029830B1FFE7059818B1FFE7039820B1AA
:101D2000FFE76FF0030001901EE000200090029892
:101D300005996A4602F052FB012804D0FFE76FF0D4
:101D4000020001900FE0009860B1FFE74EF60451E9
:101D5000CEF200014FF080500860BFF34F8FBFF309
:101D60006F8FFFE7FFE7FFE71FE0029818B1FFE77B
:101D7000059820B9FFE76FF00300019014E0029886
:101D80000599039A02F03CFA01280CD0FFE703986A
:101D900020B1FFE76FF00100019003E06FF0020057
:101DA0000190FFE7FFE7FFE7FFE7019808B080BD7C
:101DB00080B588B006900591049200200390EFF35F
:101DC00005800790079800286ED1FFE70698002845
:101DD0006AD0FFE70598002866D0FFE74FF0FF3094
:101DE0000290049868B3FFE704988068A0B1FFE709
:101DF0000498C06850280FD3FFE70498006958B1D1
:101E0000FFE7049840690699059A5143884203D335
:101E1000FFE70120029013E00498806878B9FFE79B
:101E20000498C06858B9FFE70498006938B9FFE71B
:101E30000498406918B9FFE700200290FFE7FFE728
:101E400002E000200290FFE7029801280ED1FFE790
:101E500006980599049A93681269EE464FF0000CB3
:101E6000CEF800C001F02AFF03900AE0029838B9CA
:101E7000FFE706980599002201F0E6FE0390FFE7D0
:101E8000FFE7039878B1FFE7049820B1FFE70498D3
:101E90000068019002E000200190FFE7039801999B
:101EA00001F0A8FBFFE7FFE7039808B080BD000042
:101EB00080B588B0069005918DF81320039306989D
:101EC000029000200190EFF305800790079868B317
:101ED000FFE7029830B1FFE7059818B1FFE70398D4
:101EE00020B1FFE76FF0030001901EE00023009394
:101EF000029805996A4602F0DDF8012804D0FFE750
:101F00006FF0020001900FE0009860B1FFE74EF61D
:101F10000451CEF200014FF080500860BFF34F8FA4
:101F2000BFF36F8FFFE7FFE7FFE720E0029818B1EC
:101F3000FFE7059820B9FFE76FF00300019015E077
:101F400002980599039A002301F09EFF01280CD006
:101F5000FFE7039820B1FFE76FF00100019003E075
:101F60006FF002000190FFE7FFE7FFE7FFE701984E
:101F700008B080BDB0B58EB00B900A9109920020D8
:101F80000690EFF305800D900D98002840F09980A1
:101F9000FFE70B98002800F09480FFE7802007906F
:101FA00018200590002008904FF0FF300490099809
:101FB00000284DD0FFE70998006820B1FFE7099895
:101FC00000680890FFE70998806920B1FFE7099849
:101FD00080690590FFE7059848B1FFE70598382824
:101FE00005D8FFE709980079C00718B1FFE700207E
:101FF0000C9069E00998406928B1FFE709984069A9
:1020000080080790FFE70998806880B1FFE709988A
:10201000C0685C280BD3FFE70998006938B1FFE777
:102020000998406918B1FFE7012004900FE0099872
:10203000806858B9FFE70998C06838B9FFE7099880
:10204000006918B9FFE700200490FFE7FFE702E00E
:1020500000200490FFE70498012817D1FFE70B98B0
:102060000899079A0A9BDDF814C0DDF824E0DEF831
:102070000850DEF81040EE46CEF80850CEF8044086
:10208000CEF800C002F0E4FA069019E00498B0B966
:10209000FFE70B980899BDF81C200A9BDDF814C0D7
:1020A000EE4606ACCEF80440CEF800C002F080FA4E
:1020B000012803D0FFE700200690FFE7FFE7FFE7D6
:1020C000FFE706980C90FFE70C980EB0B0BD00003B
:1020D00080B584B00390029144F62820C2F200003B
:1020E0000068009040F2CC10C2F20000006804309A
:1020F00001F094F808B9FFE700E0FFE7039801302A
:1021000080B9FFE7029868B1FFE740F2CC10C2F255
:1021100000000068011D44F60020C2F2000001F03A
:1021200023F93DE00098039908440190019840F29A
:10213000CC11C2F2000109684860019800998842F8
:102140000ED2FFE740F2DC10C2F20000006840F25D
:10215000CC11C2F200010968043101F0CFF81EE091
:1021600040F2D410C2F20000006840F2CC11C2F27A
:1021700000010968043101F0C1F8019844F68C119E
:10218000C2F200010968884207D2FFE7019844F6CD
:102190008C11C2F20001086000E0FFE7FFE7FFE7F3
:1021A00004B080BD80B582B0019001F005F944F221
:1021B0006021C2F2000108680130086040F2CC10D2
:1021C000C2F20000006898B9FFE7019840F2CC1114
:1021D000C2F20001086044F26020C2F20000006810
:1021E000012803D1FFE700F0F7FA00E0FFE71CE069
:1021F00044F6F410C2F200000068A0B9FFE740F214
:10220000CC10C2F200000068C06A0199C96A884215
:1022100007D8FFE7019840F2CC11C2F20001086034
:1022200000E0FFE700E0FFE7FFE744F26C20C2F2C6
:10223000000001680131016000680199486401985B
:10224000C06A44F27021C2F200010968884208D9CC
:10225000FFE70198C06A44F27021C2F200010860F1
:10226000FFE70199C86A00EB800240F2E410C2F275
:10227000000000EB8200043101F076F801F0C8F8AC
:1022800044F6F410C2F200000068C8B1FFE740F263
:10229000CC10C2F200000068C06A0199C96A884285
:1022A0000CD2FFE74EF60451CEF200014FF0805001
:1022B0000860BFF34F8FBFF36F8F00E0FFE700E0D0
:1022C000FFE702B080BD000080B584B001F074F873
:1022D00044F62C20C2F200000068002840D1FFE73D
:1022E00044F62C10C2F20000029000F0E7FF44F622
:1022F0004010C2F20000039000F0E0FF0299039842
:1023000040F2D012C2F20002116040F2E011C2F2BB
:102310000001086069460020086040F2D802C2F25D
:10232000000240F27813C2F200030A20102101F0EB
:10233000C5FC014644F62C20C2F200000160006892
:1023400060B1FFE744F62C20C2F20000006844F6BA
:102350006561C0F6000101F04DF900E0FFE700E023
:10236000FFE701F055F804B080BD000080B582B0F1
:10237000FFE744F26420C2F20000006808B3FFE700
:1023800001F01AF844F61420C2F20000C068C068D8
:1023900001900198043000F041FF44F26021C2F244
:1023A000000108680138086044F26421C2F20001AB
:1023B00008680138086001F02BF8019800F08CF8EB
:1023C000D7E702B080BD000080B582B001900091D7
:1023D0000198006CB8B1FFE70199C8680A6C104415
:1023E000C86001988168C068884204D3FFE70199FA
:1023F0000868C86000E0FFE70098019AD168126C95
:10240000FDF7AAFFFFE702B080BD000080B586B0EF
:10241000059004910392002002900598806B019032
:102420000598006C78B9FFE70598006848B9FFE7A0
:102430000598806802F08CFA029005990020886067
:1024400000E0FFE741E00398B8B9FFE7059A049977
:102450005068126CFDF780FF059948680A6C1044BB
:102460004860059948688968884204D3FFE7059960
:102470000868486000E0FFE726E0059A0499D06804
:10248000126CFDF769FF0599C8680A6C801AC8606C
:1024900005980168C068884206D2FFE705998868F8
:1024A0000A6C801AC86000E0FFE70398022809D18F
:1024B000FFE7019820B1FFE701980138019000E0A3
:1024C000FFE700E0FFE7FFE7FFE70198013005992C
:1024D0008863029806B080BD80B582B000900098F5
:1024E00090F8590040B9FFE70098006B00F0B6FF84
:1024F000009800F0B3FF1CE0009890F85900012804
:1025000004D1FFE7009800F0A9FF11E0009890F8CF
:10251000590002280BD0FFE74FF0500080F31188DC
:10252000BFF36F8FBFF34F8F0190FFE7FEE7FFE729
:10253000FFE702B080BD000082B0019040F2D010F1
:10254000C2F2000000680068B0FA80F0400901990A
:1025500008600198006848B9FFE740F2D010C2F265
:1025600000000068C0680068009002E00020009051
:10257000FFE7009802B0704784B04FF470500090AD
:1025800040F25460C2F2000001909DF80400400740
:1025900088B1FFE7019807300190019820F007000B
:1025A0000190019A40F25461C2F200010098891A28
:1025B00008440090FFE701980290029944F6F81051
:1025C000C2F200000160002141600298009A1044AC
:1025D0000190019808380190019820F007000190BF
:1025E000019A40F2D810C2F2000002600268516005
:1025F00002681160029903910199039A891A516046
:102600000068039908600398406844F68811C2F294
:10261000000108600398406844F68011C2F200018E
:10262000086044F65411C2F200014FF00040086007
:1026300004B0704780B582B00190FFE7FFF796FEC7
:1026400040F2E410C2F20000006802280CD3FFE759
:102650004EF60451CEF200014FF080500860BFF3F7
:102660004F8FBFF36F8F00E0FFE7E7E780B584B0DF
:10267000DDF818C00390029101928DF803300298A2
:1026800018B9FFE70698006003E001980699086012
:10269000FFE703980699C8630298069908640698AC
:1026A000012101F093FB9DF80300069981F84C008D
:1026B00004B080BD80B588B0DDF834C0DDF830C02E
:1026C000DDF82CC0DDF828C0069005910492039334
:1026D0000C98006B04998900A522FDF782FE0C98E6
:1026E000006B049900EB810004380290029820F0FE
:1026F000070002909DF80800400758B1FFE74FF02F
:10270000500080F31188BFF36F8FBFF34F8F079096
:10271000FFE7FEE70598F8B1FFE700200190FFE72B
:1027200001980F2813D8FFE70598019A805C0C994F
:10273000114481F8340005980199405C08B9FFE71D
:1027400005E0FFE7FFE7019801300190E8E70C9909
:10275000002081F8430004E00C99002081F8340047
:10276000FFE70A98382803D3FFE737200A9000E0F4
:10277000FFE70A980C99C8620A980C99C8640C99EA
:102780000020009008650C98043000F0AFFD0C9814
:10279000183000F0ABFD00980C9909610A99C1F15D
:1027A00038010C9A91610C9949620C9948650C9911
:1027B00081F8580002980699039A00F0D1FC0C9910
:1027C00008600B9820B1FFE70C980B99086000E0B7
:1027D000FFE708B080BD000080B584B00020039002
:1027E000FFE70398372810D8FFE7039800EB800134
:1027F00040F2E410C2F2000000EB810000F05EFD48
:10280000FFE7039801300390EBE744F65810C2F25B
:102810000000019000F052FD44F66C10C2F200007E
:10282000029000F04BFD44F6A010C2F2000000F050
:1028300045FD44F61420C2F2000000F03FFD44F6CE
:102840000020C2F2000000F039FD0199029840F228
:10285000D412C2F20002116040F2DC11C2F2000197
:10286000086004B080BD000083B0029044F6F81008
:10287000C2F200000190FFE70198006802998842C7
:1028800005D2FFE7FFE7019800680190F4E701989F
:10289000009000980199496808440299884209D13A
:1028A000FFE702984268019948681044486001981F
:1028B000029000E0FFE702980090009802994968B2
:1028C000084401990968884220D1FFE7019800680F
:1028D00040F2D811C2F20001096888420DD0FFE72A
:1028E000019800684268029948681044486001985D
:1028F000006800680299086007E040F2D810C2F250
:102900000000006802990860FFE704E00198006891
:1029100002990860FFE701980299884204D0FFE716
:1029200002980199086000E0FFE703B070470000DB
:1029300080B586B005900491039202930020019027
:1029400004980599486005980061049803998842A5
:1029500016D8FFE703980299401A059989698842B9
:1029600003D3FFE70120019009E040F2E010C2F23A
:10297000000000680599043100F0C0FCFFE717E093
:1029800003980299884208D2FFE704980299884286
:1029900003D3FFE70120019009E040F2D010C2F21A
:1029A000000000680599043100F0A8FCFFE7FFE78C
:1029B000019806B080BD000080B582B0019000F0A3
:1029C000FBFC0198806B18B9FFE70120009002E042
:1029D00000200090FFE700F01BFD009802B080BDD2
:1029E00080B582B0019000F0E7FC0198806B0199FE
:1029F000C96B884203D1FFE70120009002E000206C
:102A00000090FFE700F004FD009802B080BD0000D8
:102A100008480068006880F308884FF0000080F3E1
:102A2000148862B661B6BFF34F8FBFF36F8F00DFBC
:102A300000BF000008ED00E080B586B0049003916F
:102A400040F2D010C2F200000068C068C068019077
:102A50000198043000F0E2FB019890F8280040074C
:102A6000002823D5FFE70198049B81691944039A44
:102A7000FFF75EFFC0B1FFE70198049A69460023A3
:102A80000B60194602F050F90290029858B9FFE71E
:102A90004FF0500080F31188BFF36F8FBFF34F8F5B
:102AA0000590FFE7FEE700E0FFE707E0019991F8F6
:102AB000280000F0FE0081F82800FFE70198016A75
:102AC000884706B080BD000080B58EB0FFE744F6B1
:102AD0002C20C2F20000006807A9002201F090FB40
:102AE000002800F0B880FFE70798B0F1FF3F17DC3F
:102AF000FFE707A804300290029858B9FFE74FF0AB
:102B0000500080F31188BFF36F8FBFF34F8F0D908C
:102B1000FFE7FEE702990A6848688968904700E085
:102B2000FFE70798002800F19580FFE709980690D5
:102B30000698406928B1FFE70698043000F06EFB64
:102B400000E0FFE705A800F0FBF80390079801906C
:102B5000092800F27D800199DFE801F00505053DB7
:102B6000456605053D45069991F8280040F00100AD
:102B700081F828000698089B81691944039AFFF799
:102B8000D7FE30B3FFE70698016A8847069890F8A9
:102B90002800400700281AD5FFE70698089982699F
:102BA0000A44694600230B60194602F0BDF8049000
:102BB000049858B9FFE74FF0500080F31188BFF335
:102BC0006F8FBFF34F8F0C90FFE7FEE700E0FFE74A
:102BD00000E0FFE73DE0069991F8280000F0FE00D4
:102BE00081F8280035E0069991F8280040F00100AE
:102BF00081F828000898069988610698806958B974
:102C0000FFE74FF0500080F31188BFF36F8FBFF3E1
:102C10004F8F0B90FFE7FEE70698039B81691944ED
:102C20001A46FFF785FE14E0069890F82800800702
:102C3000002804D4FFE7069800F010FC07E006998E
:102C400091F8280000F0FE0081F82800FFE700E07E
:102C5000FFE7FFE73BE70EB080BD000080B584B022
:102C60000390029100F0BAFE684600F069F8019006
:102C70000098D8BBFFE7029860B9FFE70398019975
:102C8000884207D8FFE701F041FF03980199FFF759
:102C9000D3FE2AE0029858B1FFE740F2E010C2F2FA
:102CA000000000680068B0FA80F040090290FFE779
:102CB00044F62C20C2F2000000680399019A891A98
:102CC000029A00F0C1FC01F021FF60B9FFE74EF667
:102CD0000451CEF200014FF080500860BFF34F8FD7
:102CE000BFF36F8F00E0FFE7FFE702E001F00EFFA8
:102CF000FFE704B080BD000081B040F2D410C2F202
:102D000000000068006840B9FFE744F68C11C2F289
:102D100000014FF0FF3008600FE040F2D410C2F223
:102D200000000068C068C06800900098406844F6E1
:102D30008C11C2F200010860FFE701B0704700008B
:102D400080B582B0019001F007FD0090009840F23C
:102D5000C811C2F200010968884206D2FFE700F0FC
:102D600011F801990120086003E001990020086032
:102D7000FFE7009840F2C811C2F200010860009815
:102D800002B080BD80B588B0FFE740F2D010C2F23B
:102D900000000068006800284ED0FFE740F2D01025
:102DA000C2F200000168C968096806910068C0683D
:102DB000C06803900398043000F030FA0398016A69
:102DC0008847039890F828004007002832D5FFE78D
:102DD00006980399896908440590059806998842E0
:102DE0000FD9FFE70598039948600398006140F206
:102DF000D010C2F2000000680399043100F07EFA9E
:102E000017E00398069A694600230B60194601F003
:102E10008BFF0290029858B9FFE74FF0500080F303
:102E20001188BFF36F8FBFF34F8F0790FFE7FEE767
:102E3000FFE700E0FFE7A8E740F2D012C2F200028D
:102E40001068049040F2E011C2F2000108681060BE
:102E50000498086008B080BD83B00020009040F264
:102E60002400C2F200000068013058B1FFE74FF0C3
:102E7000500080F31188BFF36F8FBFF34F8F029024
:102E8000FFE7FEE74FF0500080F31188BFF36F8F2C
:102E9000BFF34F8F0190FFE7009808B9FFE7FBE70A
:102EA00003B0704780B584B00390FFE701A8FFF737
:102EB00043FB029002980199FFF7D0FEFFF704FE52
:102EC000F4E7000080B582B0019000F075FA019837
:102ED00090F845008DF80300FFE79DF903000128F5
:102EE00016DBFFE70198406A58B1FFE701982430EC
:102EF00001F0A4FD18B1FFE700F0ACFC00E0FFE733
:102F000000E005E09DF8030001388DF80300E4E7D8
:102F10000199FF2081F8450000F07AFA00F04CFAA0
:102F2000019890F844008DF80200FFE79DF9020037
:102F3000012816DBFFE70198006980B1FFE70198DF
:102F4000103001F07BFD18B1FFE700F083FC00E0DA
:102F5000FFE79DF8020001388DF8020000E000E074
:102F6000E4E70199FF2081F8440000F051FA02B033
:102F700080BD000080B58AB006900020029000F06D
:102F80002DFD40F2D810C2F20000006818B9FFE72A
:102F9000FFF7F2FA00E0FFE7069844F65411C2F298
:102FA00000010968084240F0C580FFE7069800B3B9
:102FB000FFE70698083006909DF818004007B0B16A
:102FC000FFE7069820F00700083006909DF81800EB
:102FD000400758B1FFE74FF0500080F31188BFF36E
:102FE0006F8FBFF34F8F0990FFE7FEE700E0FFE729
:102FF00000E0FFE70698002800F09A80FFE70698B7
:1030000044F68011C2F200010968884200F2908003
:10301000FFE744F6F810C2F2000004900068059043
:10302000FFE705984168069A00209142019007D277
:10303000FFE705980068002818BF01200190FFE70E
:103040000198C00730B1FFE7059804900598006823
:103050000590E6E7059840F2D811C2F20001096830
:10306000884263D0FFE70498006808300290059812
:10307000006804990860059840680699401A11286C
:1030800021D3FFE705980699084403909DF80C00AA
:10309000400758B1FFE74FF0500080F31188BFF3AD
:1030A0006F8FBFF34F8F0890FFE7FEE705984068EA
:1030B0000699401A03994860069805994860039854
:1030C000FFF7D2FB00E0FFE70598426844F6801066
:1030D000C2F200000168891A0160006844F6881194
:1030E000C2F20001096888420BD2FFE744F6801063
:1030F000C2F20000006844F68811C2F200010860C4
:1031000000E0FFE744F65410C2F20000026805999F
:1031100048681043486005990020086044F69411FF
:10312000C2F2000108680130086000E0FFE700E03B
:10313000FFE700E0FFE701F0E9FC9DF80800400729
:1031400058B1FFE74FF0500080F31188BFF36F8F45
:10315000BFF34F8F0790FFE7FEE702980AB080BDEC
:1031600083B0029001910092029804380290029973
:103170004FF080700860029804380290019820F0A7
:10318000010002990860029804380290029942F600
:103190005960C0F600000860029814380290009848
:1031A0000299086002980438029002996FF00200B8
:1031B0000860029820380290029803B0704700001F
:1031C00080B584B041F64120C0F6000044F60C62A0
:1031D000C0F60002029200210191FEF7CBFE019998
:1031E000029A40F24C63C2F200030393186041F666
:1031F0001D20C0F60000FEF7BDFE0399086040F2F6
:103200000402C2F200020A200421FEF7D1FD40F2BE
:103210005061C2F20001086004B080BD82B001902C
:103220000198006900900198416880688860019960
:10323000486889684860009840680199884205D1CB
:10324000FFE7019880680099486000E0FFE7019976
:10325000002008610099086801380860009800683B
:1032600002B0704783B0029001910092029944F23B
:103270007440C2F200000860019944F27420C2F266
:103280000000086000998020086003B070470000CB
:1032900083B0029001910092029944F6D000C2F2EC
:1032A00000000860019944F2D040C2F200000860BA
:1032B00000994FF48070086003B0704781B00090AF
:1032C000009901F10800486000994FF0FF308860D4
:1032D000009901F10800C860009901F10800086137
:1032E00000990020086001B07047000081B0009094
:1032F00000990020086101B07047000084B003907D
:1033000002910298006800900098013020B9FFE710
:1033100003980069019010E0039808300190FFE7DE
:103320000198406800680099884205D8FFE7FFE7E8
:10333000019840680190F3E7FFE70198406802991F
:1033400048600298416888600198029988600298F4
:10335000019948600398029908610399086801304F
:10336000086004B07047000083B002900191029899
:103370004068009000980199486000988068019921
:103380008860019800998968486001980099886070
:10339000029801990861029908680130086003B039
:1033A00070470000DFF80C00016841F47001016013
:1033B0007047000088ED00E082B04FF0500080F3CD
:1033C0001188BFF36F8FBFF34F8F019040F224003D
:1033D000C2F200000168013101600068012814D1C7
:1033E000FFE74EF60450CEF200000068000658B128
:1033F000FFE74FF0500080F31188BFF36F8FBFF3EA
:103400004F8F0090FFE7FEE7FFE702B07047000034
:1034100082B040F22400C2F20000006858B9FFE711
:103420004FF0500080F31188BFF36F8FBFF34F8FC1
:103430000090FFE7FEE740F22400C2F200000168BE
:1034400001390160006830B9FFE700200190019860
:1034500080F31188FFE702B07047000080B586B0A6
:10346000039003980290039800285CD0FFE702982D
:1034700008380290029801900198406844F654116F
:10348000C2F20001096808420BD1FFE74FF050007B
:1034900080F31188BFF36F8FBFF34F8F0590FFE765
:1034A000FEE70198006858B1FFE74FF0500080F345
:1034B0001188BFF36F8FBFF34F8F0490FFE7FEE7D4
:1034C0000198406844F65411C2F2000109680842AC
:1034D00027D0FFE70198006808BBFFE744F65410C7
:1034E000C2F200000268019948689043486000F009
:1034F00075FA0198426844F68011C2F2000108682A
:10350000104408600198FFF7AFF944F69811C2F231
:10351000000108680130086001F0F8FA00E0FFE7F8
:1035200000E0FFE7FFE706B080BD00004EF21001AB
:10353000CEF20001002008604EF21802CEF2000226
:10354000106040F20000C2F20000006844F6D3525E
:10355000C1F26202A0FB02024FF0FF3000EB9210BA
:103560004EF21402CEF2000210600720086070478D
:1035700084B0EFF305800190019810281ED3FFE777
:1035800001984EF2F031CEF20001405C8DF803005C
:103590009DF8030044F25421C2F2000109788842E8
:1035A0000BDAFFE74FF0500080F31188BFF36F8F05
:1035B000BFF34F8F0390FFE7FEE7FFE74EF60C5097
:1035C000CEF20000006800F4E06044F25821C2F23C
:1035D0000001096888420BD9FFE74FF0500080F3E3
:1035E0001188BFF36F8FBFF34F8F0290FFE7FEE7A5
:1035F00004B0704783B00290019100200090FFE773
:10360000009807281DD8FFE7009944F6B410C2F2CD
:10361000000050F8310070B9FFE70198009A44F6B5
:10362000B411C2F2000141F832000298009A01EB95
:10363000C201486005E0FFE7FFE700980130009015
:10364000DEE703B07047000080B584B003900291BC
:10365000019203980090FFF7AFFE009890F94400A4
:10366000013028B9FFE70099002081F84400FFE706
:10367000009890F94500013028B9FFE70099002033
:1036800081F84500FFE7FFF7C3FE0098806B38B96B
:10369000FFE7009824300299019A00F005F900E054
:1036A000FFE70098FFF70EFC04B080BD80B584B042
:1036B0000290002001900298E0B1FFE744F26820F8
:1036C000C2F20000006858B1FFE74FF0500080F3ED
:1036D0001188BFF36F8FBFF34F8F0390FFE7FEE7B3
:1036E00000F07CF902980021FEF7F2FC01F00EFADE
:1036F000019000E0FFE7019860B9FFE74EF6045142
:10370000CEF200014FF080500860BFF34F8FBFF33F
:103710006F8F00E0FFE704B080BD000080B58AB085
:103720000690059100200290069858B9FFE74FF0E7
:10373000500080F31188BFF36F8FBFF34F8F099054
:10374000FFE7FEE7059858B9FFE74FF0500080F318
:103750001188BFF36F8FBFF34F8F0890FFE7FEE72D
:1037600044F26820C2F20000006858B1FFE74FF051
:10377000500080F31188BFF36F8FBFF34F8F079016
:10378000FFE7FEE700F02AF944F62820C2F2000025
:103790000068019006980068059908440490019813
:1037A00006990968884210D2FFE7049806990968CB
:1037B000884208D2FFE704980199884203D9FFE7BD
:1037C0000120029000E0FFE70FE0049806990968E5
:1037D000884205D3FFE704980199884203D9FFE79F
:1037E0000120029000E0FFE7FFE7049806990860D7
:1037F000029838B1FFE704980199401A0021FEF7BA
:1038000067FC00E0FFE701F081F90390039860B9DD
:10381000FFE74EF60451CEF200014FF080500860F1
:10382000BFF34F8FBFF36F8F00E0FFE70AB080BD9B
:1038300081B0009044F69010C2F200000068009938
:10384000086044F62820C2F2000000680099486031
:1038500001B0704744F63421C2F200010120086033
:103860007047000080B584B002900191029858B969
:10387000FFE74FF0500080F31188BFF36F8FBFF365
:103880004F8F0390FFE7FEE7029840F2CC11C2F29F
:10389000000109681831FFF731FD01980121FEF799
:1038A00017FC04B080BD000080B584B00290019187
:1038B0000092029858B9FFE74FF0500080F311884A
:1038C000BFF36F8FBFF34F8F0390FFE7FEE70298C0
:1038D00040F2CC11C2F2000109681831FFF744FD33
:1038E000009820B1FFE74FF0FF300190FFE701980B
:1038F0000099FEF7EDFB04B080BD000080B58AB0F2
:10390000002003900690059006A805A904AAFFF7D9
:10391000A9FC039B049A0599DDF818C06846C0F815
:1039200008C04160036042F23560C0F6000044F612
:103930006061C0F6000100F08BFE014644F6841081
:10394000C2F200000160006818B1FFE70120079093
:1039500002E000200790FFE70798012804D1FFE765
:1039600001F098F9079000E0FFE70798012823D1BC
:10397000FFE74FF0500080F31188BFF36F8FBFF364
:103980004F8F099044F68C11C2F200014FF0FF30C6
:10399000086044F6F411C2F200010120086044F608
:1039A0002821C2F200010020086000F083F808B16D
:1039B000FFE700E0FFE70FE00798013058B9FFE7A5
:1039C0004FF0500080F31188BFF36F8FBFF34F8F1C
:1039D0000890FFE7FEE7FFE70AB080BD44F26821E8
:1039E000C2F20001086801300860704783B044F2F9
:1039F0006820C2F20000006838B1FFE744F63421C5
:103A0000C2F200010120086051E044F63421C2F204
:103A100000010020086044F27020C2F2000000683B
:103A20000190FFE7019800EB800140F2E410C2F240
:103A3000000050F8210090B9FFE7019858B9FFE75E
:103A40004FF0500080F31188BFF36F8FBFF34F8F9B
:103A50000290FFE7FEE7019801380190E2E7019844
:103A600000EB800140F2E410C2F2000000EB8100A4
:103A7000009000994868406848600099486808319B
:103A8000884205D1FFE70099486840684860FFE731
:103A900000984068C06840F2CC11C2F20001086092
:103AA000019844F27021C2F200010860FFE703B000
:103AB0007047000080B588B04EF60050CEF200008E
:103AC00000684CF27121C4F20F1188420BD1FFE75C
:103AD0004FF0500080F31188BFF36F8FBFF34F8F0B
:103AE0000790FFE7FEE74EF60050CEF200000068B8
:103AF0004CF27021C4F20F1188420BD1FFE74FF056
:103B0000500080F31188BFF36F8FBFF34F8F069083
:103B1000FFE7FEE74EF20040CEF20000039001788E
:103B20000491FF21017000788DF80B009DF80B00C7
:103B300000F0500044F25421C2F20001087044F237
:103B40005821C2F2000107200860FFE79DF80B0032
:103B5000000600280DD5FFE744F25821C2F200010B
:103B60000868013808609DF80B0040008DF80B00D4
:103B7000ECE744F25820C2F20000006803280BD0A2
:103B8000FFE74FF0500080F31188BFF36F8FBFF352
:103B90004F8F0590FFE7FEE744F25821C2F2000183
:103BA000086800020860086800F4E0600860049893
:103BB0004EF20041CEF2000108704EF62051CEF2D6
:103BC0000001086840F470000860086840F0704028
:103BD0000860FFF7ABFC40F22401C2F200010020B4
:103BE00001900860FFF7DEFB4EF63471CEF2000163
:103BF000086840F040400860FEF70AFFFFF7F6FE55
:103C0000FFF72AF9019808B080BD000080B582B0A6
:103C10004FF0500080F31188BFF36F8FBFF34F8FC9
:103C2000009000F0B3FD40B1FFE74EF60451CEF234
:103C300000014FF080500860FFE7002001900198DC
:103C400080F3118802B080BD80B588B006900591E0
:103C50008DF81320069858B9FFE74FF0500080F315
:103C60001188BFF36F8FBFF34F8F0790FFE7FEE719
:103C7000069805994843029002985030FFF77AF968
:103C800003900398B0B1FFE703980190019850307A
:103C900001900399002081F8460006980599019A41
:103CA0009DF81330DDF80CC0EE46CEF800C0FEF7EC
:103CB000DDFC00E0FFE7039808B080BD80B590B060
:103CC00084461298CDF828C00991089207938DF880
:103CD0001B000A9858B9FFE74FF0500080F3118895
:103CE000BFF36F8FBFF34F8F0F90FFE7FEE707988B
:103CF00058B9FFE74FF0500080F31188BFF36F8F82
:103D0000BFF34F8F0E90FFE7FEE708990020039066
:103D100031B1FFE70998B0FA80F040090390FFE75E
:103D20000398C00758B1FFE74FF0500080F31188A7
:103D3000BFF36F8FBFF34F8F0D90FFE7FEE708993A
:103D40000020029031B9FFE70998002818BF012030
:103D50000290FFE70298C00758B1FFE74FF050000C
:103D600080F31188BFF36F8FBFF34F8F0C90FFE785
:103D7000FEE750200490049850280BD0FFE74FF046
:103D8000500080F31188BFF36F8FBFF34F8F0B90FC
:103D9000FFE7FEE7049807980590059888B1FFE7CC
:103DA0000599012081F846000A980999089A9DF81A
:103DB0001B30DDF814C0EE46CEF800C0FEF756FC0E
:103DC00000E0FFE7059810B080BD000080B584B02A
:103DD0000290019102980090009858B9FFE74FF0C7
:103DE000500080F31188BFF36F8FBFF34F8F0390A4
:103DF000FFE7FEE7FFF7E0FA00990B68C86B0A6C73
:103E000000FB0230886000990020886300990868F0
:103E1000486000990B68C86B0A6C013800FB0230DF
:103E2000C8600099FF2081F84400009981F845009E
:103E30000198D0B9FFE700980069A0B1FFE70098AA
:103E4000103000F0FBFD60B1FFE74EF60451CEF2FA
:103E500000014FF080500860BFF34F8FBFF36F8FAA
:103E600000E0FFE700E0FFE708E000981030FFF710
:103E700025FA00982430FFF721FAFFE7FFF7C8FA88
:103E8000012004B080BD000080B592B00C900B9171
:103E90000A920993002008900C980490049858B94D
:103EA000FFE74FF0500080F31188BFF36F8FBFF32F
:103EB0004F8F1190FFE7FEE70B990020039039B96F
:103EC000FFE70498006C002818BF01200390FFE76B
:103ED0000398C00758B1FFE74FF0500080F31188F6
:103EE000BFF36F8FBFF34F8F1090FFE7FEE7099985
:103EF00000200229029007D1FFE70498C06B013827
:103F000018BF01200290FFE70298C00758B1FFE7F1
:103F10004FF0500080F31188BFF36F8FBFF34F8FC6
:103F20000F90FFE7FEE700F0FBFB01460020019049
:103F300031B9FFE70A98002818BF01200190FFE778
:103F40000198C00758B1FFE74FF0500080F3118887
:103F5000BFF36F8FBFF34F8F0E90FFE7FEE7FFE7D2
:103F6000FFF72AFA0498806B0499C96B884204D33E
:103F7000FFE70998022834D1FFE704980B99099AC2
:103F8000FEF744FA07900498406AA0B1FFE704984E
:103F9000243000F053FD60B1FFE74EF60451CEF23D
:103FA00000014FF080500860BFF34F8FBFF36F8F59
:103FB00000E0FFE710E0079860B1FFE74EF604511C
:103FC000CEF200014FF080500860BFF34F8FBFF377
:103FD0006F8F00E0FFE7FFE7FFF71AFA01200D906F
:103FE00065E00A9828B9FFE7FFF712FA00200D9064
:103FF0005DE0089830B9FFE705A8FFF719FC01203C
:10400000089000E0FFE7FFE7FFE7FFF701FAFFF79F
:10401000E5FCFFF7D1F9049890F94400013028B984
:10402000FFE70499002081F84400FFE7049890F925
:104030004500013028B9FFE70499002081F84500C8
:10404000FFE7FFF7E5F905A80AA900F04BFA28BB3E
:10405000FFE70498FEF7C4FCC8B1FFE704981030EE
:104060000A99FFF7FFFB0498FEF72CFF00F04EFDC6
:1040700060B9FFE74EF60451CEF200014FF08050D8
:104080000860BFF34F8FBFF36F8FFFE705E0049821
:10409000FEF718FF00F03AFDFFE707E00498FEF78F
:1040A00011FF00F033FD00200D9000E058E70D985F
:1040B00012B080BD80B592B00B900A91099208931E
:1040C0000B980590059858B9FFE74FF0500080F322
:1040D0001188BFF36F8FBFF34F8F0E90FFE7FEE79E
:1040E0000A990020029039B9FFE70598006C002872
:1040F00018BF01200290FFE70298C00758B1FFE700
:104100004FF0500080F31188BFF36F8FBFF34F8FD4
:104110000D90FFE7FEE7089900200229019007D1E2
:10412000FFE70598C06B013818BF01200190FFE739
:104130000198C00758B1FFE74FF0500080F3118895
:10414000BFF36F8FBFF34F8F0C90FFE7FEE7FFF7D2
:104150000FFAEFF311814FF0500080F31188BFF395
:104160006F8FBFF34F8F10910F90109806900598A6
:10417000806B0599C96B884204D3FFE70898022831
:1041800033D1FFE7059890F845008DF813000598A6
:10419000806B039005980A99089AFEF737F99DF904
:1041A00013000130B8B9FFE70598406A88B1FFE70E
:1041B0000598243000F042FC48B1FFE7099820B18F
:1041C000FFE709990120086000E0FFE700E0FFE752
:1041D00000E0FFE706E09DF813000130059981F843
:1041E0004500FFE70120079002E000200790FFE76D
:1041F00006981190119880F31188079812B080BD2D
:1042000080B58EB009900891079200200690099819
:104210000390039858B9FFE74FF0500080F31188DE
:10422000BFF36F8FBFF34F8F0D90FFE7FEE7089945
:104230000020019039B9FFE70398006C002818BFEF
:1042400001200190FFE70198C00758B1FFE74FF048
:10425000500080F31188BFF36F8FBFF34F8F0C9026
:10426000FFE7FEE700F05CFA01460020009031B95C
:10427000FFE70798002818BF01200090FFE700988B
:10428000C00758B1FFE74FF0500080F31188BFF32B
:104290006F8FBFF34F8F0B90FFE7FEE7FFE7FFF74E
:1042A0008BF80398806B0290029830B3FFE7039875
:1042B0000899FEF789F802980138039988630398F2
:1042C0000069A0B1FFE70398103000F0B7FB60B1C0
:1042D000FFE74EF60451CEF200014FF08050086027
:1042E000BFF34F8FBFF36F8F00E0FFE700E0FFE702
:1042F000FFF78EF801200A906DE0079828B9FFE7D4
:10430000FFF786F800200A9065E0069830B9FFE7CD
:1043100004A8FFF78DFA0120069000E0FFE7FFE711
:10432000FFE7FFF775F8FFF759FBFFF745F803982C
:1043300090F94400013028B9FFE70399002081F883
:104340004400FFE7039890F94500013028B9FFE7E2
:104350000399002081F84500FFE7FFF759F804A80A
:1043600007A900F0BFF830BBFFE70398FEF724FB76
:10437000D0B1FFE7039824300799FFF773FA039849
:10438000FEF7A0FD00F0C2FB60B9FFE74EF6045156
:10439000CEF200014FF080500860BFF34F8FBFF3A3
:1043A0006F8F00E0FFE705E00398FEF78BFD00F05C
:1043B000ADFBFFE70EE00398FEF784FD00F0A6FBDF
:1043C0000398FEF7F9FA18B1FFE700200A9002E01F
:1043D000FFE7FFE763E70A980EB080BD80B58EB0B7
:1043E00008900791069208980390039858B9FFE740
:1043F0004FF0500080F31188BFF36F8FBFF34F8FE2
:104400000A90FFE7FEE707990020009039B9FFE71F
:104410000398006C002818BF01200090FFE7009867
:10442000C00758B1FFE74FF0500080F31188BFF389
:104430006F8FBFF34F8F0990FFE7FEE7FFF798F804
:10444000EFF311814FF0500080F31188BFF36F8FAD
:10445000BFF34F8F0C910B900C9804900398806BD6
:104460000290029898B3FFE7039890F844008DF803
:10447000070003980799FDF7A7FF029801380399F1
:1044800088639DF907000130B8B9FFE70398006918
:1044900088B1FFE70398103000F0D0FA48B1FFE789
:1044A000069820B1FFE706990120086000E0FFE7C9
:1044B00000E0FFE700E0FFE706E09DF807000130BD
:1044C000039981F84400FFE70120059002E00020F5
:1044D0000590FFE704980D900D9880F311880598DA
:1044E0000EB080BD80B588B005900491059858B98C
:1044F000FFE74FF0500080F31188BFF36F8FBFF3D9
:104500004F8F0790FFE7FEE7049858B9FFE74FF099
:10451000500080F31188BFF36F8FBFF34F8F069069
:10452000FFE7FEE7FEF748FF44F62820C2F200004E
:1045300000680290029805994968401A0190049811
:104540000068013018B9FFE7002003902BE044F623
:104550009010C2F20000006805990968884209D0ED
:10456000FFE7029805994968884203D3FFE70120D5
:10457000039017E001980499096888420BD2FFE77D
:10458000019A04990868801A08600598FFF750F9A5
:104590000020039005E004990020086001200390AA
:1045A000FFE7FFE7FFE7FEF733FF039808B080BDA2
:1045B00070B58CB0DDF844C0DDF840C00B900A91B6
:1045C000ADF826200893BDF826008000FEF7D2FC47
:1045D0000590059880B1FFE75C20FEF7CBFC0790C3
:1045E000079820B1FFE705980799086303E005984D
:1045F000FEF734FFFFE702E000200790FFE707988F
:10460000F0B1FFE70798002680F859600B980A99E7
:10461000BDF82620089BDDF840C0119C079DEE46A2
:10462000CEF80C60CEF80850CEF80440CEF800C0AA
:10463000FEF740F80798FDF7B5FD0120069003E06E
:104640004FF0FF300690FFE706980CB070BD0000F9
:10465000B0B58EB0DDF850C0DDF84CC0DDF848C014
:104660000A90099108920793139858B9FFE74FF001
:10467000500080F31188BFF36F8FBFF34F8F0D9001
:10468000FFE7FEE7149858B9FFE74FF0500080F3BA
:104690001188BFF36F8FBFF34F8F0C90FFE7FEE7DA
:1046A0005C20049004985C280BD0FFE74FF050008A
:1046B00080F31188BFF36F8FBFF34F8F0B90FFE72D
:1046C000FEE70498149820B3FFE7139808B3FFE7B8
:1046D000149806901398069908630699022081F8A9
:1046E00059000A980999089A079BDDF848C0069C6A
:1046F000EE460025CEF80C50CEF8084005ACCEF8BA
:104700000440CEF800C0FDF7D5FF0698FDF74AFD3E
:1047100002E000200590FFE705980EB0B0BD000054
:1047200081B044F6F410C2F20000006818B9FFE747
:10473000012000900DE044F26820C2F20000006801
:1047400018B9FFE70220009002E000200090FFE788
:10475000FFE7009801B0704781B044F62820C2F20C
:10476000000000680090009801B0704780B582B0EA
:10477000FEF7FEFE0020009044F62820C2F2000062
:1047800000680190019802B080BD000080B586B03D
:104790000020029044F26820C2F200000068002865
:1047A00040F0CB80FFE744F62821C2F20001086800
:1047B0000130019001980860019858BBFFE740F272
:1047C000D410C2F200000068006858B1FFE74FF053
:1047D000500080F31188BFF36F8FBFF34F8F0590A8
:1047E000FFE7FEE740F2D412C2F200021068009028
:1047F00040F2DC11C2F20001086810600098086005
:1048000044F69011C2F20001086801300860FEF71A
:1048100073FA00E0FFE7019844F68C11C2F2000140
:104820000968884268D3FFE7FFE740F2D410C2F27C
:1048300000000068006840B9FFE744F68C11C2F23E
:1048400000014FF0FF30086055E040F2D410C2F292
:1048500000000068C068C068049004984068039035
:1048600001980399884207D2FFE7039844F68C1118
:10487000C2F2000108603EE0FFE704980430FEF752
:10488000CDFC0498806A28B1FFE704981830FEF741
:10489000C5FC00E0FFE70498C06A44F27021C2F250
:1048A00000010968884208D9FFE70498C06A44F209
:1048B0007021C2F200010860FFE70499C86A00EBAA
:1048C000800240F2E410C2F2000000EB82000431EA
:1048D000FEF74AFD0498C06A40F2CC11C2F2000112
:1048E0000968C96A884203D3FFE70120029000E00B
:1048F000FFE7FFE799E7FFE740F2CC10C2F20000C4
:104900000068C06A00EB800140F2E410C2F20000CF
:1049100050F82100022803D3FFE70120029000E0B5
:10492000FFE744F63420C2F20000006818B1FFE748
:104930000120029000E0FFE707E044F69C11C2F27C
:104940000001086801300860FFE7029806B080BDEA
:1049500080B586B0039003980290002001900398E0
:10496000002867D0FFE7029840F2CC11C2F20001A4
:10497000096888420BD0FFE74FF0500080F31188A0
:10498000BFF36F8FBFF34F8F0590FFE7FEE70298ED
:10499000006D58B9FFE74FF0500080F31188BFF366
:1049A0006F8FBFF34F8F0490FFE7FEE70299086D0A
:1049B000013808650299C86AC96C884238D0FFE797
:1049C0000298006D90BBFFE702980430FEF726FCCA
:1049D00008B9FFE700E0FFE70299C86CC8620299D6
:1049E000C86AC0F1380088610298C06A44F2702138
:1049F000C2F200010968884208D9FFE70298C06A3C
:104A000044F27021C2F200010860FFE70299C86A0F
:104A100000EB800240F2E410C2F2000000EB8200E2
:104A20000431FEF7A1FC0120019000E0FFE700E067
:104A3000FFE700E0FFE7019806B080BD80B584B0D5
:104A400002900298C068C0680190019858B9FFE7C9
:104A50004FF0500080F31188BFF36F8FBFF34F8F7B
:104A60000390FFE7FEE701981830FEF7D7FB44F20A
:104A70006820C2F20000006820BBFFE70198043004
:104A8000FEF7CCFB0198C06A44F27021C2F200012B
:104A90000968884208D9FFE70198C06A44F270218A
:104AA000C2F200010860FFE70199C86A00EB8002CA
:104AB00040F2E410C2F2000000EB82000431FEF785
:104AC00053FC09E0019800F1180144F6A010C2F26D
:104AD0000000FEF749FCFFE70198C06A40F2CC11E4
:104AE000C2F200010968C96A884208D9FFE70120BB
:104AF000009044F63421C2F20001086002E0002078
:104B00000090FFE7009804B080BD000080B584B03D
:104B100000200290019044F26820C2F20000006878
:104B200058B9FFE74FF0500080F31188BFF36F8F43
:104B3000BFF34F8F0390FFE7FEE7FEF73DFC44F223
:104B40006820C2F200000168013901600068002895
:104B500040F09980FFE744F26020C2F20000006854
:104B6000002800F08F80FFE7FFE744F6A010C2F2B4
:104B700000000068002842D0FFE744F6A010C2F20F
:104B80000000C068C068029002981830FEF746FB2B
:104B900002980430FEF742FB0298C06A44F270218A
:104BA000C2F200010968884208D9FFE70298C06A8A
:104BB00044F27021C2F200010860FFE70299C86A5E
:104BC00000EB800240F2E410C2F2000000EB820031
:104BD0000431FEF7C9FB0298C06A40F2CC11C2F260
:104BE00000010968C96A884207D3FFE744F6342107
:104BF000C2F200010120086000E0FFE7B5E702987B
:104C000018B1FFE7FEF778F8FFE744F69C10C2F210
:104C10000000006800900098E0B1FFE7FFE7FFF7B1
:104C2000B5FD38B1FFE744F63421C2F2000101209E
:104C3000086000E0FFE7009801380090FFE7009867
:104C40000028ECD1FFE744F69C11C2F200010020DD
:104C5000086000E0FFE744F63420C2F2000000687C
:104C600070B1FFE7012001904EF60451CEF2000131
:104C70004FF080500860BFF34F8FBFF36F8F00E09D
:104C8000FFE7FFE700E0FFE7FEF7C2FB019804B093
:104C900080BD000080B58AB000200890FDF714FBAD
:104CA00044F62C20C2F20000006858B3FFE7002051
:104CB00004900790069007A806A905AAFEF7E8FA4F
:104CC000049B059A0698DDF81CC06946C1F808C027
:104CD00048600220086042F6A560C0F6000044F675
:104CE0006A61C0F60001FFF7B3FC014644F63020CC
:104CF000C2F200000160006818B1FFE701200890CF
:104D0000FFE700E0FFE7089858B9FFE74FF05000D1
:104D100080F31188BFF36F8FBFF34F8F0990FFE7C8
:104D2000FEE708980AB080BD80B58AB0DDF830C0D3
:104D3000089007910692059300200490089858B9AE
:104D4000FFE74FF0500080F31188BFF36F8FBFF380
:104D50004F8F0990FFE7FEE744F62C20C2F20000D7
:104D60000068A8B3FFE7079800900698019008989C
:104D70000290079805281EDCFFE7FFF7D1FC022808
:104D80000CD1FFE744F62C20C2F2000000680C9A18
:104D900069460023FFF778F804900BE044F62C20D6
:104DA000C2F200000068694600231A46FFF76CF85B
:104DB0000490FFE70BE044F62C20C2F200000068EC
:104DC000059A69460023FFF775F90490FFE700E0B4
:104DD000FFE704980AB080BDF1EE100A4FF6FF71AC
:104DE000C0F2C03120EA010040F04070E1EE100A4C
:104DF00070470000000000000000010203040607E5
:104E00000809000000000102030400007D4E0008B4
:104E10000000000000000000000000000000000092
:104E20000004000018000000000000000000000066
:104E3000544E0008000000000000000000000000C8
:104E40000000000000020000180000000000000048
:104E50000000000064656661756C745461736B00DA
:104E600049444C4500546D725100546D7220537684
:104E70006300746573745F7175657565007465733F
:104E8000745461736B000000A84E000800000020FD
:104E900028000000C4010008D04E000828000020AF
:104EA00010500000E00100080024F400724E0008D9
:104EB00000000000000000000000000000000000F2
:104EC000000000000100000010000000AAAAAAAA29
:040000050800018965
:00000001FF
