:020000040800F2
:10000000285700202D020008F9440008314200085A
:10001000F5440008B9050008C552000800000000BA
:10002000000000000000000000000000B1480008CF
:10003000850700080000000071450008F548000829
:10004000470200084702000847020008470200086C
:100050004702000847020008890700084702000815
:10006000470200084702000847020008470200084C
:10007000DD050008470200084702000847020008A3
:10008000470200084702000847020008470200082C
:10009000BD050008CD05000847020008470200081A
:1000A000470200084702000847020008470200080C
:1000B00047020008470200084702000847020008FC
:1000C00047020008470200084702000847020008EC
:1000D000470200084702000847020008B55200081E
:1000E00047020008470200084702000847020008CC
:1000F00047020008470200084702000847020008BC
:1001000047020008470200084702000847020008AB
:100110004702000847020008E549000847020008B6
:10012000470200084702000847020008470200088B
:10013000470200084702000847020008470200087B
:10014000470200084702000847020008470200086B
:10015000470200084702000847020008470200085B
:10016000470200084702000847020008470200084B
:10017000470200084702000847020008000000008C
:10018000470200084702000800F002F800F03EF8BD
:100190000AA090E8000C82448344AAF10107DA45E2
:1001A00001D100F033F8AFF2090EBAE80F0013F0F6
:1001B000010F18BFFB1A43F001031847D4DC0000FD
:1001C000F4DC0000103A24BF78C878C1FAD852078E
:1001D00024BF30C830C144BF04680C6070470000C1
:1001E0000023002400250026103A28BF78C1FBD840
:1001F000520728BF30C148BF0B6070471FB50DF0D4
:10020000EAFC00F023F91FBD10B510BD00F076F92F
:100210001146FFF7F3FF07F08DFC00F094F903B4EB
:10022000FFF7F2FF03BC00F097F900000948804790
:1002300009480047FEE7FEE7FEE7FEE7FEE7FEE7C8
:10024000FEE7FEE7FEE7FEE704480549054A064BE0
:1002500070470000D149000889010008285100209A
:1002600028570020285300202853002053EA020C6E
:1002700000F069802DE9F04B4FF00006002B1FBF06
:10028000B3FA83F503FA05F424FA05F65E4012BFCB
:100290001643B2FA82F502FA05F4C5F120051EBF35
:1002A00022FA05FC44EA0C04203556EA044C4FEAD5
:1002B000144418BF641C4FF000084FF0000990422E
:1002C00071EB030C39D3002919BFB1FA81F701FA98
:1002D00007F6B0FA80F700FA07F6C7F120071EBF4D
:1002E00020FA07FC46EA0C062037B6FBF4FCA7EB25
:1002F0000507103F07F01F0BCBF120062CFA06F67E
:100300000CFA0BFB44BFB3460026202FA4BF5E4669
:100310004FF0000B5BEA060C08BF4FF0010B19EB26
:100320000B0948EB0608ABFB027C06FB02CC0BFB7F
:1003300003CCC01B71EB0C01C1E70B4602464146E2
:100340004846BDE8F08B13B5084318BF4FF0FF30A7
:100350000146AFF30080BDE81C407047032A40F21D
:10036000308010F0030C00F0158011F8013BBCF157
:10037000020F624498BF11F801CB00F8013B38BF6F
:1003800011F8013BA2F1040298BF00F801CB38BF7D
:1003900000F8013B11F0030300F07580083AC0F04B
:1003A000088051F8043B083A51F804CBA0E8081043
:1003B000F5E7121D5CBF51F8043B40F8043BAFF376
:1003C0000080D20724BF11F8013B11F801CB48BFD0
:1003D00011F8012B24BF00F8013B00F801CB48BF06
:1003E00000F8012B704702F0FF0343EA032242EAC0
:1003F000024200F002B84FF0000200B513469446E6
:100400009646203922BFA0E80C50A0E80C50B1F16C
:100410002001BFF4F7AF090728BFA0E80C5048BF80
:100420000CC05DF804EB890028BF40F8042B08BF1E
:10043000704748BF20F8022B11F0804F18BF00F81A
:10044000012B7047704770477047000070B5064C2D
:100450007C44064D7D4404E0204601680844804702
:10046000241DAC42F8D170BD5CDA00005CDA0000FB
:1004700010B500F03BF8006810BD10B5044600F060
:1004800035F8046010BD10B5203AC0F00B80B1E81B
:100490001850A0E81850B1E81850A0E81850203AB9
:1004A000BFF4F5AF5FEA027C24BFB1E81850A0E8C2
:1004B000185044BF18C918C0BDE810405FEA827CDC
:1004C00024BF51F8043B40F8043B08BF7047D207F3
:1004D00028BF31F8023B48BF11F8012B28BF20F894
:1004E000023B48BF00F8012B7047000000487047EE
:1004F0008000002000487047800000207546FFF70C
:10050000F9FFAE4605006946534620F007008546D0
:1005100018B020B5FFF798FEBDE820404FF0000668
:100520004FF000074FF000084FF0000BAC46ACE86E
:10053000C009ACE8C009ACE8C009ACE8C00921F0CA
:1005400007018D46704710B50446AFF30080204682
:10055000BDE81040FFF763BE01491820ABBEFEE7BF
:10056000260002007047000080B50020C4F202009F
:100570001021012201F012FD80BD000080B5002095
:10058000C4F202001021002201F008FD80BD00002D
:1005900080B540F20040C4F202000122114601F091
:1005A000FDFC80BD80B540F20040C4F20200012194
:1005B000002201F0F3FC80BDFFE7FEE780B540F2CA
:1005C0004050C2F2000000F09DFB80BD80B540F2BB
:1005D0004050C2F2000000F095FB80BD80B540F2B3
:1005E0006850C2F2000001F00FF880BD82B00190A7
:1005F0000198007810384AF6AB21CAF6AA21A0FB70
:1006000001100009009000994DF62860C0F6000026
:10061000405C0199C8650098042807D3FFE7019959
:100620000868042262F30900886506E001990868F9
:1006300040F2FF3290438865FFE70198806D02B079
:100640007047000086B0059000208DF813000598D3
:10065000806A03900598806910BBFFE703980290B9
:1006600003281BD80299DFE801F0020D0218059853
:1006700090F82F00C00720B1FFE701208DF813008C
:10068000FFE70CE00598C06AB0F1C07F04D1FFE736
:1006900001208DF81300FFE701E000E0FFE745E0EF
:1006A00005988069B0F5005F25D1FFE703980190B8
:1006B00003281ED80199DFE801F00206021101208B
:1006C0008DF8130016E0059890F82F00C00720B1B0
:1006D000FFE701208DF81300FFE70BE00598C06AE3
:1006E000B0F1C07F04D1FFE701208DF81300FFE7D0
:1006F00000E0FFE719E003980090032804D3FFE728
:100700000098032804D00EE001208DF813000BE0C0
:10071000059890F82F00C00720B1FFE701208DF861
:100720001300FFE700E0FFE7FFE7FFE79DF8130096
:1007300006B0704784B00390029101920093039831
:100740000168086820F4802008600098039909680F
:10075000486003988068402809D1FFE70198039911
:1007600009688860029803990968C86008E00298DF
:10077000039909688860019803990968C860FFE7D0
:1007800004B070477047000080B5012001F00EFAF8
:1007900080BD000072B6FFE7FEE7000084B0029063
:1007A0000191029890F820008DF803009DF8030055
:1007B000012805D0FFE79DF8030002280AD1FFE7D2
:1007C000019A0298016848691043486100208DF839
:1007D0000F0008E00299486A40F480204862012036
:1007E0008DF80F00FFE79DF80F0004B07047000080
:1007F00088B00690059104920393069890F8200023
:100800008DF8070006980068806800900598806859
:1008100008B9FFE700E0FFE79DF80700012806D0D0
:10082000FFE79DF80700022840F08080FFE79DF871
:100830000300400700280CD4FFE79DF803000007E1
:10084000002806D4FFE79DF80300C006002864D501
:10085000FFE70098C0F301600290029901208840F0
:10086000039908600598806868B9FFE705980168F2
:10087000C06840EA415006990968029A01EB0211EA
:10088000C1F880010EE005994A688868C96840EAA5
:10089000C200084306990968029A01EB0211C1F8E7
:1008A0008001FFE70598006906990968029A01EB43
:1008B0000211C1F884010598007D01280CD1FFE7E1
:1008C00006980068029900EB0111D1F8840140F408
:1008D0008070C1F88401FFE70498406806990968B0
:1008E000029A01EB0211C1F88C0104980068069984
:1008F0000968029A01EB0211C1F8880106980068A4
:10090000029900EB0111D1F8800140F00100C1F81B
:10091000800100208DF81F0011E00699486A40F41C
:100920000010486201208DF81F0008E00699486A0F
:1009300040F48020486201208DF81F00FFE79DF8F9
:100940001F0008B07047000086B00490039104981F
:1009500090F820008DF803009DF80300012806D0D0
:10096000FFE79DF80300022840F0B080FFE746F261
:100970000040C4F2000001900199D1F8000240F05B
:100980000100C1F800020199D1F8000220F47C5066
:10099000C1F800020398426A0199D1F8000240EAC6
:1009A0000220C1F800020398406900F01F010120F5
:1009B00088400290029A0199D1F81C029043C1F834
:1009C0001C020398C069F0B9FFE7029A0199D1F8B7
:1009D0000C029043C1F80C02039A9088D1685269C6
:1009E00040EA0140019901EBC201C1F84002039ABB
:1009F00010889168526940EA0140019901EBC201F7
:100A0000C1F84402FFE70398C06901281ED1FFE73F
:100A1000029A0199D1F80C021043C1F80C02039A12
:100A200090881168526940EA0140019901EBC201C6
:100A3000C1F84002039A90899168526940EA0140E6
:100A4000019901EBC201C1F84402FFE703988069F4
:100A500040B9FFE7029A0199D1F804029043C1F826
:100A6000040207E0029A0199D1F804021043C1F888
:100A70000402FFE70398006940B9FFE7029A019971
:100A8000D1F814029043C1F8140207E0029A0199C8
:100A9000D1F814021043C1F81402FFE70398006A6A
:100AA000012808D1FFE7029A0199D1F81C021043EE
:100AB000C1F81C02FFE70199D1F8000220F0010003
:100AC000C1F8000200208DF8170008E00499486A78
:100AD00040F48020486201208DF81700FFE79DF860
:100AE000170006B07047000081B0009001B0704759
:100AF00086B00490039102920193049890F820002C
:100B00008DF803009DF80300012806D0FFE79DF84B
:100B10000300022840F0E880FFE7039880B9FFE770
:100B200004980068C068800748B9FFE70499486ADC
:100B300040F40010486201208DF81700DDE00FE05E
:100B4000049800680069800748B9FFE70499486A7B
:100B500040F40010486201208DF81700CDE0FFE757
:100B600004980068039900EB0110D0F8B00100F080
:100B70000400029988600298806858B9FFE70498D9
:100B80000068039900EB0110D0F8B001400D029904
:100B900008600AE004980068039900EB0110D0F89F
:100BA000B001C00802994860FFE704980068039903
:100BB00000EB0110D0F8B00100F002000299C8600B
:100BC00004980068039900EB0110D0F8B40100F01C
:100BD0000F00082804D3FFE70299082008610BE002
:100BE00004980068039900EB0110D0F8B40100F0FC
:100BF0000F0002990861FFE704980068039900EB71
:100C00000110D0F8B40180B2000A029988610498FA
:100C10000068039900EB0110D0F8B401000C0299B0
:100C2000486104980068039900EB0110D0F8B801FE
:100C30000199087004980068039900EB0110D0F83E
:100C4000B801000A0199487004980068039900EB04
:100C50000110D0F8B801000C019988700498006860
:100C6000039900EB0110D0F8B801000E0199C8708B
:100C700004980068039900EB0110D0F8BC010199B9
:100C8000087104980068039900EB0110D0F8BC01CA
:100C9000000A0199487104980068039900EB01105B
:100CA000D0F8BC01000C0199887104980068039980
:100CB00000EB0110D0F8BC01000E0199C871039837
:100CC00038B9FFE704980168C86840F02000C860A0
:100CD00006E004980168086940F020000861FFE719
:100CE00000208DF8170008E00499486A40F480203D
:100CF000486201208DF81700FFE79DF8170006B045
:100D00007047000080B58AB00990002008900998CB
:100D10000068406907900998006840680690099843
:100D200000688068059009980068C0680490099878
:100D300000680069039009980068806902909DF836
:100D40001C00C007002800F09480FFE79DF8140005
:100D5000C00758B3FFE709980168012088609DF833
:100D600014008007002804D5FFE7099800F09CFBD9
:100D70001BE09DF814004007002805D5FFE7089800
:100D800040F4006008900FE09DF814000007002870
:100D900005D5FFE7089840F48050089003E00998D3
:100DA00000F07EFBFFE7FFE7FFE7FFE79DF8150098
:100DB000C00760B3FFE7099801684FF4807088604E
:100DC0009DF815008007002804D5FFE7099800F07A
:100DD00073FB1BE09DF815004007002805D5FFE7D1
:100DE000089840F4005008900FE09DF815000007A7
:100DF000002805D5FFE7089840F48040089003E0FC
:100E0000099800F055FBFFE7FFE7FFE7FFE79DF8D4
:100E10001600C00760B3FFE7099801684FF48030FF
:100E200088609DF816008007002804D5FFE7099820
:100E300000F04AFB1BE09DF816004007002805D58E
:100E4000FFE7089840F4004008900FE09DF8160076
:100E50000007002805D5FFE7089840F48030089087
:100E600003E0099800F02CFBFFE7FFE7FFE7FFE74F
:100E7000FFE79DF81C000007002810D5FFE79DF84C
:100E80001000C006002809D5FFE7089840F400705C
:100E90000890099801681020C860FFE7FFE79DF8F7
:100EA0001C00400700280FD5FFE79DF81000000741
:100EB000002808D5FFE7099801680820C86009984C
:100EC00000F066FAFFE7FFE79DF81C0080070028A6
:100ED0000BD5FFE709980068C068800720B1FFE7DD
:100EE000099800F059FAFFE7FFE79DF81C0040065B
:100EF000002810D5FFE79DF80C00C006002809D592
:100F0000FFE7089840F48060089009980168102075
:100F10000861FFE7FFE79DF81C00800600280FD559
:100F2000FFE79DF80C000007002808D5FFE70998A7
:100F3000016808200861099800F060FAFFE7FFE700
:100F40009DF81C00C00600280BD5FFE70998006833
:100F50000069800720B1FFE7099800F053FAFFE726
:100F6000FFE79DF81E00800700280FD5FFE79DF8DA
:100F70001800C006002808D5FFE70998016810206E
:100F80004860099800F042FAFFE7FFE79DF81E006D
:100F9000C00778B1FFE79DF818000007002808D5C2
:100FA000FFE70998016808204860099800F090FA66
:100FB000FFE7FFE79DF81D000006002840F18D8047
:100FC000FFE79DF818004007002840F18180FFE707
:100FD0009DF81D00C00750B1FFE79DF80800C0074D
:100FE00028B1FFE7089840F001000890FFE79DF85E
:100FF0001D00800700280BD5FFE79DF8080080073B
:10100000002805D5FFE7089840F002000890FFE7A8
:101010009DF81D00400700280BD5FFE79DF808004C
:101020004007002805D5FFE7089840F00400089025
:10103000FFE79DF81D000007002848D5FFE79DF851
:10104000080010F0700F42D0FFE7029800F0700027
:1010500001460191102814D0FFE70198202815D0EF
:10106000FFE70198302816D0FFE70198402817D0F5
:10107000FFE70198502818D0FFE70198602819D0A1
:101080001DE0089840F00800089019E0089840F02A
:101090001000089014E0089840F0200008900FE03D
:1010A000089840F0400008900AE0089840F080005E
:1010B000089005E0089840F48070089000E0FFE791
:1010C00009980168886920F070008861FFE7FFE7F0
:1010D0000998016804204860FFE7089848B1FFE7D5
:1010E000089A0999486A104348620998FFF7FCFC7E
:1010F000FFE70AB080BD000080B584B0029002987E
:1011000020B9FFE701208DF80F00E0E0029890F889
:10111000200020B9FFE7029800F0DEF8FFE7029810
:101120000168086840F00100086000F04FFF01907E
:10113000FFE7029800684068C007A8B9FFE700F021
:1011400045FF0199401A0B280DD3FFE70299486A21
:1011500040F4003048620299052081F82000012007
:101160008DF80F00B3E0E4E702980168086820F00A
:101170000200086000F02AFF0190FFE70298006873
:1011800040688007002815D5FFE700F01FFF019990
:10119000401A0B280DD3FFE70299486A40F400304B
:1011A00048620299052081F8200001208DF80F0087
:1011B0008DE0E3E70298007E012807D1FFE702985F
:1011C0000168086840F08000086006E00298016845
:1011D000086820F080000860FFE70298407E012840
:1011E00007D1FFE702980168086840F040000860F6
:1011F00006E002980168086820F040000860FFE7F8
:101200000298807E012807D1FFE7029801680868EC
:1012100040F02000086006E002980168086820F0AD
:1012200020000860FFE70298C07E012807D1FFE791
:1012300002980168086820F01000086006E0029833
:101240000168086840F010000860FFE70298007F1E
:10125000012807D1FFE702980168086840F00800FC
:10126000086006E002980168086820F0080008603D
:10127000FFE70298407F012807D1FFE70298016845
:10128000086840F00400086006E0029801680868F9
:1012900020F004000860FFE7029B19685A6898680C
:1012A000D3F80CC040EA0C00D3F810C040EA0C00A0
:1012B0005B691843013A1043C861029900204862F3
:1012C000029A012182F820108DF80F00FFE79DF8A7
:1012D0000F0004B080BD000080B58CB00B900020E2
:1012E0000A9009900890079006900B98006846F2C3
:1012F0000041C4F20001884247D1FFE7FFE7002028
:10130000059043F64000C4F20200016841F000710C
:101310000160006800F0007005900598FFE7FFE7A6
:101320000020049043F63000C4F20200016841F04E
:1013300008010160006800F0080004900498FFE7CD
:101340000320069002210791002102910891099043
:1013500009200A9040F60040C4F2020006A900F0FD
:1013600041FC029A142000900521019100F00CFF2D
:10137000009800F0FFFE0199029A1520039000F0FA
:1013800003FF039800F0F6FEFFE70CB080BD0000FD
:1013900081B0009001B0704780B58AB0099009987B
:1013A000006846F20041C4F20001884223D1FFE701
:1013B0000998002102AA6B46FFF79AFB0298B0F544
:1013C000027F08D1FFE740F2C420C2F20000694664
:1013D00005F0E0FA0EE0029840F20521884208D1BB
:1013E000FFE740F23040C2F20000694605F0D2FA51
:1013F000FFE7FFE7FFE70AB080BD000081B0009083
:1014000001B0704781B0009001B0704781B000908A
:1014100001B0704780B584B00290029890F8200027
:1014200001282FD1FFE70299022081F820000298BD
:101430000168086820F00100086000F0C7FD019015
:10144000FFE7029800684068C007A8B1FFE700F016
:10145000BDFD0199401A0B280DD3FFE70299486A98
:1014600040F4003048620299052081F820000120F4
:101470008DF80F000FE0E4E70299002048628DF834
:101480000F0008E00299486A40F4002048620120F9
:101490008DF80F00FFE79DF80F0004B080BD00003D
:1014A00081B0009001B0704781B0009001B07047EA
:1014B00081B0009001B0704781B0009001B07047DA
:1014C00081B0009001B0704781B0009001B07047CA
:1014D00081B0009001B0704780B584B0029002984E
:1014E000806D019000F072FD0090029890F8350038
:1014F00002280DD0FFE7029980204865FFE7029996
:10150000002081F83400FFE701208DF80F0055E03E
:1015100002980168086820F01600086002980168C7
:10152000486920F0800048610298006C20B9FFE70C
:101530000298806C38B1FFE702980168086820F0D3
:1015400008000860FFE702980168086820F00100C1
:101550000860FFE7029800680068C007C8B1FFE7AD
:1015600000F034FD0099401A062811D3FFE70299D4
:10157000202048650299032081F83500FFE7029991
:10158000002081F83400FFE703208DF80F0015E0FC
:10159000E0E70298C16D3F20884001998860029978
:1015A000012081F83500FFE70299002081F834001E
:1015B000FFE7FFE700208DF80F00FFE79DF80F0021
:1015C00004B080BD82B00090009890F835000228E9
:1015D00007D0FFE700998020486501208DF80700BB
:1015E0000EE00099052081F8350000980168086830
:1015F00020F001000860FFE700208DF80700FFE7FA
:101600009DF8070002B0704780B586B005900020B5
:10161000039040F24800C2F20000006848F2B511A1
:10162000C1F64E31A0FB0110800A02900598806D32
:10163000019001980068049004980599C96DC8400C
:10164000000700281AD5FFE70598006800684007E2
:10165000002812D5FFE705980168086820F004000B
:1016600008600598C16D0820884001998860059937
:10167000486D40F001004865FFE7FFE704980599D1
:10168000C96DC840C007A0B1FFE705980068406970
:10169000000600280CD5FFE70598C16D01208840A1
:1016A000019988600599486D40F002004865FFE7A0
:1016B000FFE704980599C96DC8404007002814D574
:1016C000FFE7059800680068800700280CD5FFE751
:1016D0000598C16D04208840019988600599486D7E
:1016E00040F004004865FFE7FFE704980599C96DDD
:1016F000C840C006002847D5FFE705980068006885
:10170000000700283FD5FFE70598C16D10208840ED
:1017100001998860059800680068400300281AD580
:10172000FFE70598006800680003002809D4FFE778
:101730000598006C20B1FFE70598016C8847FFE72A
:1017400008E00598806C20B1FFE70598816C884718
:10175000FFE7FFE716E0059800680068C00500286D
:1017600007D4FFE705980168086820F008000860C2
:10177000FFE70598006C20B1FFE70598016C8847EA
:10178000FFE7FFE7FFE7FFE704980599C96DC84049
:101790008006002840F18D80FFE70598006800680A
:1017A000C006002840F18480FFE70598C16D202025
:1017B000884001998860059890F83500052834D153
:1017C000FFE705980168086820F016000860059892
:1017D0000168486920F0800048610598006C20B9D4
:1017E000FFE70598806C38B1FFE705980168086845
:1017F00020F008000860FFE70598C16D3F20884091
:10180000019988600599012081F83500FFE7059965
:10181000002081F83400FFE70598006D20B1FFE754
:101820000598016D8847FFE77BE005980068006830
:10183000400300281AD5FFE70598006800680003F8
:10184000002809D4FFE70598406C20B1FFE7059810
:10185000416C8847FFE708E00598C06B20B1FFE7BF
:101860000598C16B8847FFE7FFE720E0059800680F
:101870000068C005002811D4FFE7059801680868D2
:1018800020F0100008600599012081F83500FFE77D
:101890000599002081F83400FFE7FFE70598C06B49
:1018A00020B1FFE70598C16B8847FFE7FFE7FFE737
:1018B000FFE70598406DA0B3FFE70598406DC007AE
:1018C00030B3FFE70599052081F8350005980168D8
:1018D000086820F001000860FFE7039801300390DA
:1018E0000299884201D9FFE707E0FFE70598006801
:1018F0000068C0070028F0D1FFE70599012081F8B2
:101900003500FFE70599002081F83400FFE7FFE785
:101910000598C06C20B1FFE70598C16C8847FFE7C8
:10192000FFE706B080BD000080B586B004900020BF
:10193000039000F04BFB0290049820B9FFE70120D0
:101940008DF81700A3E00498406A08B1FFE7FFE7AD
:101950000499022081F83500FFE70499002081F8FE
:101960003400FFE704980168086820F0010008606F
:10197000FFE7049800680068C00790B1FFE700F037
:1019800025FB0299401A06280AD3FFE70499202074
:1019900048650499032081F835008DF8170076E03A
:1019A000E7E70498006800680390039848F23F0155
:1019B000CFF2100108400390049900914868D1F8D3
:1019C00008C0CB680A6940EA0C00184310434A6912
:1019D00010438A691043CA691043096A0143039896
:1019E000084303900498406A042808D1FFE704994B
:1019F000C86A096B0143039808430390FFE7039803
:101A00000499096808600498006840690390039885
:101A100020F0070003900498416A0398084303905C
:101A20000498406A04281AD1FFE70498816A039851
:101A3000084303900498C06A80B1FFE70498FEF75A
:101A400001FE50B1FFE70499402048650499012048
:101A500081F835008DF8170019E0FFE7FFE70398DC
:101A60000499096848610498FEF7C0FD0190049844
:101A7000C16D3F2088400199886004990020486525
:101A8000049A012182F835108DF81700FFE79DF8C0
:101A9000170006B080BD000080B588B006900591A3
:101AA0000492039300208DF80B000698806D01903E
:101AB000FFE7069890F83400012804D1FFE70220E0
:101AC0008DF81F0045E00699012081F83400FFE7FA
:101AD000FFE7069890F8350001282BD1FFE706991B
:101AE000022081F83500069900204865069805997E
:101AF000049A039BFEF71EFE0698C16D3F208840A6
:101B00000199886006980168086840F0160008602E
:101B10000698006C38B1FFE706980168086840F045
:101B200008000860FFE706980168086840F00100B7
:101B3000086009E0FFE70699002081F83400FFE71C
:101B400002208DF80B00FFE79DF80B008DF81F00B9
:101B5000FFE79DF81F0008B080BD000080B584B08D
:101B6000039000F033FA029003980190019801303D
:101B700048B1FFE740F27400C2F20000017801981A
:101B800008440190FFE7FFE700F020FA0299401AAD
:101B90000199884201D2FFE7F6E704B080BD00005A
:101BA00081B0ADF8020001B07047000080B582B08E
:101BB000ADF8060043F61440C4F201000068BDF819
:101BC000061008420CD0FFE7BDF8060043F61441AA
:101BD000C4F201010860BDF80600FFF7E1FFFFE76E
:101BE00002B080BD8EB00D900C9100200A9009903B
:101BF00008900B90FFE70B980F2800F2CC81FFE7CD
:101C00000B99012088400A900C9800680A990840B6
:101C1000099009980A99884240F0B881FFE70C982A
:101C2000406800F00300012807D0FFE70C984068E7
:101C300000F0030002282FD1FFE70D98806808907C
:101C40000B984100032000FA01F10898884308909E
:101C50000C98C0680B99490000FA01F108980843F4
:101C6000089008980D9988600D98406808900B9925
:101C7000012000FA01F10898884308900C98406808
:101C8000C0F300100B9900FA01F10898084308907E
:101C900008980D994860FFE70C98406800F0030031
:101CA000032818D0FFE70D98C06808900B984100F2
:101CB000032000FA01F10898884308900C98806886
:101CC0000B99490000FA01F1089808430890089818
:101CD0000D99C860FFE70C98406800F003000228E7
:101CE00026D1FFE70D980B996FF0030202EA51012C
:101CF0000844006A08900B9800F0070081000F204C
:101D000000FA01F10898884308900C9800690B9933
:101D100001F00701890000FA01F1089808430890D2
:101D200008980D990B9B02EA530211440862FFE7E1
:101D30000D98006808900B984100032000FA01F10B
:101D40000898884308900C98406800F003000B99AD
:101D5000490000FA01F108980843089008980D9985
:101D600008600C9880798007002800F00E81FFE75A
:101D7000FFE70020079043F64400C4F20200016828
:101D800041F480410160006800F4804007900798AA
:101D9000FFE70B9820F0030043F60801C4F20101AD
:101DA000405808900B9800F0030081000F2000FAC3
:101DB00001F10898884308900D980021C4F20201AF
:101DC000884203D1FFE7002006905EE00D9840F2C4
:101DD0000041C4F20201884203D1FFE701200590CF
:101DE00050E00D9840F60001C4F20201884203D190
:101DF000FFE70220049042E00D9840F60041C4F253
:101E00000201884203D1FFE70320039034E00D98DC
:101E100041F20001C4F20201884203D1FFE704202D
:101E2000029026E00D9841F20041C4F2020188427E
:101E300003D1FFE70520019018E00D9841F600015D
:101E4000C4F20201884203D1FFE7062000900AE0B5
:101E50000D9941F60042C4F202020820914208BFE7
:101E600007200090FFE700980190FFE7019802909B
:101E7000FFE702980390FFE703980490FFE70498B8
:101E80000590FFE705980690FFE70698C0B20B990A
:101E900001F00301890000FA01F108980843089055
:101EA00008980B9921F0030143F60802C4F20102DD
:101EB000885043F60840C4F2010000680890099970
:101EC0000898884308900C988079C006002805D5AA
:101ED000FFE70999089808430890FFE7089843F638
:101EE0000841C4F20101086043F60C40C4F201004D
:101EF0000068089009990898884308900C988079A0
:101F00008006002805D5FFE709990898084308903E
:101F1000FFE7089843F60C41C4F20101086043F65C
:101F20000440C4F2010000680890099908988843A9
:101F300008900C9880798007002805D5FFE709995B
:101F4000089808430890FFE7089843F60441C4F254
:101F50000101086043F60040C4F2010000680890E7
:101F600009990898884308900C988079C00728B18F
:101F7000FFE70999089808430890FFE7089843F697
:101F80000041C4F201010860FFE7FFE7FFE70B989B
:101F900001300B902FE60EB07047000082B0019028
:101FA000ADF802108DF801209DF8010028B1FFE77F
:101FB000BDF802000199886105E0BDF80200000447
:101FC00001998861FFE702B07047000044F6C8003D
:101FD000C2F200000068704740F27400C2F20000D4
:101FE000027844F6C801C2F2000108681044086093
:101FF0007047000080B543F60041C4F20201086852
:1020000040F400700860086840F480600860086868
:1020100040F480700860032000F0D0F80F2000F03A
:1020200005F800F07BF8002080BD000080B58CB082
:102030000B90002004900390FFE70020009043F6EF
:102040004000C4F20200016841F010010160006824
:1020500000F0100000900098FFE706A802A900F029
:10206000E7F909980490049820B9FFE700F010FA06
:10207000059004E000F00CFA40000590FFE7059899
:102080004DF68361C4F21B31A0FB01014FF0FF301C
:1020900000EB9140039040F22060C2F2000041F258
:1020A0000001C4F20001016040F2E731C160039910
:1020B0004160002101618160816101F02FFB8DF899
:1020C00007009DF8070028BBFFE740F22060C2F23E
:1020D000000001F075FB8DF807009DF80700C0B9FE
:1020E000FFE7362000F046F80B980F280CD8FFE7E2
:1020F0000B993620002200F047F80B9840F2780147
:10210000C2F20001086003E001208DF80700FFE73C
:10211000FFE7FFE79DF807000CB080BD80B582B0F7
:10212000FFE70020019043F64400C4F2020001687A
:1021300041F480410160006800F480400190019802
:10214000FFE7FFE70020009043F64000C4F20200E2
:10215000016841F080510160006800F080500090FB
:102160000098FFE76FF001000F21002200F00CF84B
:1021700002B080BD80B582B08DF807009DF90700E0
:1021800005F02CF902B080BD80B586B08DF817003F
:10219000049103920020029005F038F902909DF915
:1021A0001700019002980499039A02F0A7F90146DA
:1021B000019805F033F906B080BD000080B582B00B
:1021C0000190019805F06EF902B080BD80B584B031
:1021D00002900191029820B9FFE701208DF80F00CD
:1021E00021E1019843F60041C4F20201096801F0BF
:1021F0000701884212D9FFE7019943F60040C4F273
:1022000002000170006800F007000199884204D0C4
:10221000FFE701208DF80F0005E1FFE70298007845
:10222000800700282AD5FFE7029800784007002899
:1022300009D5FFE743F60801C4F20201086840F43B
:10224000E0500860FFE7029800780007002809D5F1
:10225000FFE743F60801C4F20201086840F4604059
:102260000860FFE743F60801C4F20201086820F0A5
:10227000F000029A926810430860FFE70298007825
:10228000C00700286ED0FFE702984068012811D1EE
:10229000FFE743F60000C4F20200006800F40031DA
:1022A0000020B0EB514F04D1FFE701208DF80F0063
:1022B000B9E02CE002984068022805D0FFE70298B8
:1022C0004068032811D1FFE743F60000C4F2020082
:1022D000006800F000710020B0EB516F04D1FFE7FF
:1022E00001208DF80F009EE010E043F60000C4F2DC
:1022F0000200006800F002010020B0EB510F04D191
:10230000FFE701208DF80F008DE0FFE7FFE743F6C0
:102310000801C4F20201086820F00300029A526822
:1023200010430860FFF752FE0090FFE743F60800F5
:10233000C4F20200006800F00C0002994968B0EB9A
:10234000810F0ED0FFE7FFF741FE0099401A41F2DE
:102350008931884204D3FFE703208DF80F0062E043
:10236000E4E7FFE7019843F60041C4F2020109687F
:1023700001F00701884212D2FFE7019943F60040BD
:10238000C4F202000170006800F007000199884261
:1023900004D0FFE701208DF80F0044E0FFE702982A
:1023A0000078400700280CD5FFE743F60801C4F287
:1023B0000201086820F4E050029AD26810430860D5
:1023C000FFE702980078000700280DD5FFE743F6E5
:1023D0000801C4F20201086820F46040029A126900
:1023E00040EAC2000860FFE700F076F843F6080113
:1023F000C4F202010968C9B20A094DF61061C0F6BB
:102400000001895CC84040F24801C2F20001086046
:1024100040F27800C2F200000068FFF707FE0020DB
:102420008DF80F00FFE79DF80F0004B080BD00009D
:1024300082B00190009101990F20086043F60800D6
:10244000C4F20200016801F00301019A51600168C1
:1024500001F0F001019A9160016801F4E051019AE4
:10246000D160006800F46040C0080199086143F63B
:102470000040C4F20200006800F007000099086004
:1024800002B0704740F24800C2F200000068704796
:1024900080B5FFF7F7FF43F60801C4F202010968AF
:1024A000C1F382224DF62061C0F60001895CC8406C
:1024B00080BD000080B5FFF7E5FF43F60801C4F2D8
:1024C0000201096889B24A0B4DF62061C0F600018D
:1024D000895CC84080BD000080B586B000200590B2
:1024E00004900390029043F60800C4F202000068D2
:1024F00000F00C000146019140B1FFE7019804286B
:102500000AD0FFE7019808280CD04FE042F20040C3
:10251000C0F2F40002904FE041F60030C0F2B70084
:10252000029049E043F60400C4F20200016801F0A1
:102530003F01059100684002002813D5FFE743F6EC
:102540000400C4F202000068C0F3881041F60031B4
:10255000C0F2B701A0FB0101059A0023FDF786FE3A
:10256000049012E043F60400C4F202000068C0F3D5
:10257000881042F20041C0F2F401A0FB0101059A6B
:102580000023FDF773FE0490FFE743F60400C4F256
:102590000200006800F44031022000EBD1300390CB
:1025A00004980399B0FBF1F0029005E042F200407C
:1025B000C0F2F4000290FFE7029806B080BD000070
:1025C00080B586B00490049820B9FFE701208DF80B
:1025D000170050E304980078C007002800F0A58099
:1025E000FFE743F60800C4F20200006800F00C00A8
:1025F000042813D0FFE743F60800C4F20200006885
:1026000000F00C0008281ED1FFE743F60400C4F2D6
:10261000020000684002002815D5FFE743F60000DD
:10262000C4F20200006800F400310020B0EB514F0A
:1026300008D0FFE70498406820B9FFE701208DF833
:10264000170018E370E0FFE704984068B0F5803F9A
:1026500009D1FFE743F60001C4F20201086840F423
:102660008030086020E004984068B0F5A02F0DD1BC
:10267000FFE743F60001C4F20201086840F480203D
:102680000860086840F4803008600CE043F6000100
:10269000C4F20201086820F480300860086820F461
:1026A00080200860FFE7FFE7FFE704984068E8B193
:1026B000FFE7FFF78BFC0390FFE743F60000C4F24F
:1026C0000200006800F400310020B0EB514F0CD143
:1026D000FFE7FFF77BFC0399401A652804D3FFE767
:1026E00003208DF81700C6E2E7E71CE0FFF76EFC59
:1026F0000390FFE743F60000C4F20200006800F414
:1027000000310020B0EB514F0CD0FFE7FFF75EFC2B
:102710000399401A652804D3FFE703208DF81700BA
:10272000A9E2E7E7FFE7FFE7FFE704980078800703
:10273000002840F19680FFE743F60800C4F202004B
:10274000006810F00C0F13D0FFE743F60800C4F246
:102750000200006800F00C0008282CD1FFE743F6C7
:102760000400C4F2020000684002002823D4FFE7FE
:1027700043F60000C4F20200006800F002010020ED
:10278000B0EB510F09D0FFE70498C068012804D0CE
:10279000FFE701208DF817006DE243F60001C4F257
:1027A0000201086820F0F800049A126940EAC200A9
:1027B0000860FFE754E00498C06870B3FFE70021A9
:1027C000C4F2472101200860FFF700FC0390FFE7F7
:1027D00043F60000C4F20200006800F0020100208D
:1027E000B0EB510F0CD1FFE7FFF7F0FB0399401A54
:1027F000032804D3FFE703208DF817003BE2E7E747
:1028000043F60001C4F20201086820F0F800049ABF
:10281000126940EAC200086021E00021C4F24721A9
:1028200000200860FFF7D2FB0390FFE743F60000AB
:10283000C4F20200006800F002010020B0EB510F6A
:102840000CD0FFE7FFF7C2FB0399401A032804D31B
:10285000FFE703208DF817000DE2E7E7FFE7FFE74A
:10286000FFE704980078000700284BD5FFE704989D
:10287000406918B3FFE740F68061C4F247210120A8
:102880000860FFF7A3FB0390FFE743F67400C4F270
:102890000200006800F002010020B0EB510F0CD1E3
:1028A000FFE7FFF793FB0399401A032804D3FFE7E0
:1028B00003208DF81700DEE1E7E722E040F68061B3
:1028C000C4F2472100200860FFF780FB0390FFE778
:1028D00043F67400C4F20200006800F00201002018
:1028E000B0EB510F0CD0FFE7FFF770FB0399401AD4
:1028F000032804D3FFE703208DF81700BBE1E7E7C7
:10290000FFE7FFE7049800784007002840F1CE80F9
:10291000FFE700208DF8070043F64000C4F20200F4
:102920000068C000002815D4FFE7FFE700200090F2
:1029300043F64000C4F20200016841F0805101609A
:10294000006800F0805000900098FFE701208DF8AB
:102950000700FFE747F20000C4F200000068C0056E
:10296000002822D4FFE747F20001C4F20001086802
:1029700040F480700860FFF729FB0390FFE747F2FF
:102980000000C4F200000068C00500280CD4FFE776
:10299000FFF71CFB0399401A032804D3FFE7032029
:1029A0008DF8170067E1EAE7FFE7FFE70498806822
:1029B000012809D1FFE743F67001C4F2020108685B
:1029C00040F0010008601FE00498806805280DD1E0
:1029D000FFE743F67001C4F20201086840F004000A
:1029E0000860086840F0010008600CE043F67001E0
:1029F000C4F20201086820F001000860086820F0B5
:102A000004000860FFE7FFE7FFE704988068F8B17B
:102A1000FFE7FFF7DBFA0390FFE743F67000C4F22D
:102A20000200006800F002010020B0EB510F0ED14F
:102A3000FFE7FFF7CBFA0399401A41F28931884248
:102A400004D3FFE703208DF8170014E1E5E71EE04B
:102A5000FFF7BCFA0390FFE743F67000C4F20200F0
:102A6000006800F002010020B0EB510F0ED0FFE72C
:102A7000FFF7ACFA0399401A41F28931884204D336
:102A8000FFE703208DF81700F5E0E5E7FFE79DF885
:102A90000700012809D1FFE743F64001C4F2020113
:102AA000086820F080500860FFE7FFE7049880691D
:102AB000002800F0DC80FFE743F60800C4F20200C3
:102AC000006800F00C00082800F08580FFE70498FB
:102AD000806902285CD1FFE76021C4F24721002011
:102AE0000860FFF773FA0390FFE743F60000C4F2B3
:102AF0000200006800F000710020B0EB516F0CD0B4
:102B0000FFE7FFF763FA0399401A032804D3FFE7AE
:102B100003208DF81700AEE0E7E70499C869D1F803
:102B200020C04B6A8A6A40EA0C0040EA8310D20354
:102B30004FF6FF739A43A2F580321043C96A40EA08
:102B4000016043F60401C4F2020108606021C4F28E
:102B5000472101200860FFF739FA0390FFE743F6A9
:102B60000000C4F20200006800F000710020B0EB29
:102B7000516F0CD1FFE7FFF729FA0399401A032898
:102B800004D3FFE703208DF8170074E0E7E721E0A6
:102B90006021C4F2472100200860FFF717FA039074
:102BA000FFE743F60000C4F20200006800F0007185
:102BB0000020B0EB516F0CD0FFE7FFF707FA039945
:102BC000401A032804D3FFE703208DF8170052E0D2
:102BD000E7E7FFE74AE004988069012804D1FFE7AE
:102BE00001208DF8170046E043F60400C4F202000D
:102BF0000068029004988069012831D0FFE70298AC
:102C000000F480000499C969884229D1FFE702983D
:102C100000F03F000499096A884221D1FFE7029839
:102C200047F6C07108400499496AB0EB811F17D17B
:102C3000FFE7029800F440300499896AC9034FF60F
:102C4000FF729143A1F58031884209D1FFE70298D4
:102C500000F070600499C96AB0EB016F04D0FFE71F
:102C600001208DF8170006E0FFE7FFE7FFE70020EF
:102C70008DF81700FFE79DF8170006B080BD000033
:102C800081B00090009890F8510001B070470000AA
:102C900080B584B00290029820B9FFE701208DF83A
:102CA0000F0071E00298406A60B9FFE7029840683F
:102CB000B0F5827F01D1FFE703E002990020C861EF
:102CC000FFE705E002990020086102994861FFE7EB
:102CD000029900208862029890F8510040B9FFE7FD
:102CE0000299002081F85000029800F051F8FFE7A7
:102CF0000299022081F8510002980168086820F0CA
:102D000040000860029A019211685068D2F808C029
:102D1000D36800F482700CF4044C604403F4006344
:102D20001844136903F002031844536903F00103C4
:102D30001844936903F400731844D36903F038030B
:102D40001844136A03F080031843926A02F4005295
:102D500010430860029A508B00F004001168526A18
:102D600002F010021044486002980168C86920F41B
:102D70000060C861029900204865029A012182F82A
:102D800051108DF80F00FFE79DF80F0004B080BDD3
:102D900080B58EB00D9000200C900B900A90099099
:102DA00008900D98006843F20001C4F201018842C6
:102DB0005ED1FFE7FFE70020079043F64400C4F22E
:102DC0000200016841F480510160006800F4805005
:102DD00007900798FFE7FFE70020069043F63000D2
:102DE000C4F20200016841F002010160006800F0D5
:102DF000020006900698FFE7FFE70020059043F6E3
:102E00003000C4F20200016841F001010160006875
:102E100000F0010005900598FFE7182008900220B7
:102E200000900990002001900A90032002900B90DE
:102E3000052003900C9040F20040C4F2020008A963
:102E40000491FEF7CFFEDDF800C0019B029A0398C3
:102E500004994FF0800ECDF820E0CDF824C00A93FD
:102E60000B920C900020C4F20200FEF7BBFEFFE7BD
:102E70000EB080BD80B588B006900591ADF81220E7
:102E80000393069890F85100012804D0FFE7022030
:102E90008DF81F0011E1059820B1FFE7BDF8120081
:102EA00020B9FFE701208DF81F0006E10698406871
:102EB000B0F5827F16D1FFE70698806890B9FFE7EA
:102EC0000699042081F851000698059ABDF8123041
:102ED0000399EC46CCF80010114600F045FA8DF845
:102EE0001F00EAE0FFF772F80290FFE7069890F8FB
:102EF0005000012804D1FFE702208DF81F00DCE01C
:102F00000699012081F85000FFE7FFE706990420A9
:102F100081F851000699002048650599069A916349
:102F2000BDF81210069A9187BDF81210069AD18743
:102F300006990863069988860699C88606990864E2
:102F40000699486406988068B0F5004F0DD1FFE7F8
:102F500006980168086820F040000860069801683B
:102F6000086820F480400860FFE706980068006861
:102F700000F04000402807D0FFE706980168086885
:102F800040F040000860FFE70698C068D0BBFFE74C
:102F9000FFE70698C08FA0B3FFE706980068806837
:102FA000C00778B1FFE706980068007B0699896B37
:102FB00008700699886B013088630699C88F0138BC
:102FC000C8871DE0FFF702F80299401A039988426A
:102FD00004D3FFE70398013018B9FFE7039870B9ED
:102FE000FFE70699012081F85100FFE706990020CC
:102FF00081F85000FFE703208DF81F005DE0FFE738
:10300000C7E739E0FFE70698C08FA0B3FFE706984F
:1030100000688068C00778B1FFE706980068C0685C
:103020000699896B08800699886B02308863069937
:10303000C88F0138C8871DE0FEF7C8FF0299401A03
:103040000399884204D3FFE70398013018B9FFE7DA
:10305000039870B9FFE70699012081F85100FFE756
:103060000699002081F85000FFE703208DF81F002B
:1030700023E0FFE7C7E7FFE706980399029A01F00C
:10308000A9FA20B1FFE7069920204865FFE70699D5
:10309000012081F85100FFE70699002081F85000D7
:1030A000FFE70698406D20B1FFE701208DF81F0073
:1030B00003E000208DF81F00FFE79DF81F0008B017
:1030C00080BD000080B588B006900591ADF8122053
:1030D0000393FEF77BFF0290BDF81200ADF80600E7
:1030E000069890F85100012804D0FFE702208DF8DF
:1030F0001F0034E1059820B1FFE7BDF8120020B9A8
:10310000FFE701208DF81F0029E1FFE7069890F8FE
:103110005000012804D1FFE702208DF81F001EE1B6
:103120000699012081F85000FFE7FFE70699032088
:1031300081F851000699002048650599069A1163A7
:10314000BDF81210069A9186BDF81210069AD18623
:1031500006998863069988870699C88706994864FE
:103160000699086406988068B0F5004F0DD1FFE716
:1031700006980168086820F0400008600698016819
:10318000086840F480400860FFE70698006800681F
:1031900000F04000402807D0FFE706980168086863
:1031A00040F040000860FFE70698C068B0F5006F87
:1031B00051D1FFE70698406828B1FFE7BDF8060047
:1031C00001280ED1FFE706980168006B0088C860EF
:1031D0000699086B023008630699C88E0138C886C4
:1031E000FFE7FFE70698C08EA0B3FFE706980068E8
:1031F0008068800700280ED5FFE706980168006BFD
:103200000088C8600699086B023008630699C88E6A
:103210000138C8861DE0FEF7D9FE0299401A0399CD
:10322000884204D3FFE70398013018B9FFE70398F9
:1032300070B9FFE70699012081F85100FFE7069970
:10324000002081F85000FFE703208DF81F0086E082
:10325000FFE7C7E750E00698406828B1FFE7BDF8F0
:10326000060001280ED1FFE706980168006B007880
:1032700008730699086B013008630699C88E0138F7
:10328000C886FFE7FFE70698C08EA0B3FFE7069861
:1032900000688068800700280ED5FFE7069801685F
:1032A000006B007808730699086B01300863069973
:1032B000C88E0138C8861DE0FEF788FE0299401AC4
:1032C0000399884204D3FFE70398013018B9FFE758
:1032D000039870B9FFE70699012081F85100FFE7D4
:1032E0000699002081F85000FFE703208DF81F00A9
:1032F00035E0FFE7C7E7FFE706980399029A01F078
:10330000DBF920B1FFE7069920204865FFE7069822
:10331000806870B9FFE7FFE700200090069800681A
:10332000C068009006980068806800900098FFE7E9
:10333000FFE70699012081F85100FFE70699002078
:1033400081F85000FFE70698406D20B1FFE70120AB
:103350008DF81F0003E000208DF81F00FFE79DF8A7
:103360001F0008B080BD000080B58CB0DDF838C00B
:103370000A9009910892ADF81E3001200390FEF7E3
:1033800025FE04900A9890F851008DF817000A98CD
:1033900040680690BDF81E00ADF81C009DF81700AF
:1033A000012812D0FFE70698B0F5827F09D1FFE728
:1033B0000A98806828B9FFE79DF81700042804D010
:1033C000FFE702208DF82F009BE1099838B1FFE755
:1033D000089820B1FFE7BDF81E0020B9FFE70120E3
:1033E0008DF82F008DE1FFE70A9890F85000012832
:1033F00004D1FFE702208DF82F0082E10A99012015
:1034000081F85000FFE7FFE70A9890F85100042880
:1034100005D0FFE70A99052081F85100FFE70A99D6
:103420000020486508990A9A9163BDF81E100A9A0F
:10343000D187BDF81E100A9A918709990A9A1163DB
:10344000BDF81E100A9AD186BDF81E100A9A918600
:103450000A9908640A9948640A980068006800F0AC
:103460004000402807D0FFE70A980168086840F04C
:1034700040000860FFE70A98C068B0F5006F40F0B0
:103480008180FFE70A98406828B1FFE7BDF81C007B
:1034900001280ED1FFE70A980168006B0088C86018
:1034A0000A99086B023008630A99C88E0138C886E9
:1034B000FFE7FFE70A98C18E0120019039B9FFE7C5
:1034C0000A98C08F002818BF01200190FFE70198DB
:1034D000C007002855D0FFE70A9800688068800779
:1034E000002818D5FFE70A98C08EA0B1FFE703981F
:1034F000012810D1FFE70A980168006B0088C860B6
:103500000A99086B023008630A99C88E0138C88688
:1035100000200390FFE70A9800688068C007A8B100
:10352000FFE70A98C08F88B1FFE70A980068C06873
:103530000A99896B08800A99886B023088630A9916
:10354000C88F0138C88701200390FFE7FEF73EFDD2
:103550000499401A0E99884212D3FFE70E98013061
:1035600070B1FFE70A99012081F85100FFE70A993D
:10357000002081F85000FFE703208DF82F00C0E005
:1035800098E782E00A98406828B1FFE7BDF81C0080
:1035900001280ED1FFE70A980168006B00780873D4
:1035A0000A99086B013008630A99C88E0138C886E9
:1035B000FFE7FFE70A98C18E0120009039B9FFE7C5
:1035C0000A98C08F002818BF01200090FFE70098DC
:1035D000C007002858D0FFE70A9800688068800775
:1035E000002818D5FFE70A98C08EA0B1FFE703981E
:1035F000012810D1FFE70A980168006B0078087372
:103600000A99086B013008630A99C88E0138C88688
:1036100000200390FFE70A9800688068C007A8B1FF
:10362000FFE70A98C08F88B1FFE70A980068C06872
:103630000A99896B08700A99886B013088630A9926
:10364000C88F0138C88701200390FFE7FEF7BEFC52
:103650000499401A0E99884204D3FFE70E9801306E
:1036600018B9FFE70E9870B9FFE70A99012081F8B1
:103670005100FFE70A99002081F85000FFE703207E
:103680008DF82F003DE095E7FFE70A980E99049A20
:1036900001F012F868B1FFE70A9920204865FFE7BA
:1036A0000A99002081F85000FFE701208DF82F00D3
:1036B00027E00A98806870B9FFE7FFE700200290D2
:1036C0000A980068C06802900A98006880680290B2
:1036D0000298FFE7FFE70A99012081F85100FFE710
:1036E0000A99002081F85000FFE70A98406D20B148
:1036F000FFE701208DF82F0003E000208DF82F0058
:10370000FFE79DF82F000CB080BD000081B0009055
:1037100001B0704781B0009001B0704780B582B0B1
:103720000090009820B9FFE701208DF807003FE0E6
:10373000009890F83D0040B9FFE70099002081F81B
:103740003C00009800F038F8FFE70099022081F86B
:103750003D00009951F8040B01F04CF9009901204B
:1037600081F84600FFE70099012081F83E000099AA
:1037700081F83F00009981F84000009981F84100EC
:10378000FFE7FFE70099012081F84200009981F8E6
:103790004300009981F84400009981F84500FFE753
:1037A0000099012081F83D0000208DF80700FFE717
:1037B0009DF8070002B080BD81B0009001B0704755
:1037C00083B00190019890F83D00012804D0FFE7F4
:1037D00001208DF80B006AE00199022081F83D007C
:1037E00001980168C86840F00100C860019800684D
:1037F0000021C4F2010188423CD0FFE70198006833
:10380000B0F1804F36D0FFE70198006840F20041E8
:10381000C4F2000188422DD0FFE70198006840F60D
:103820000001C4F20001884224D0FFE7019800683B
:1038300040F60041C4F2000188421BD0FFE7019826
:10384000006840F20041C4F20101884212D0FFE753
:103850000198006844F20001C4F20101884209D0D5
:10386000FFE70198006841F60001C4F200018842B8
:1038700012D1FFE701980068806800F0070000900F
:103880000098062807D0FFE701980168086840F013
:1038900001000860FFE706E001980168086840F051
:1038A00001000860FFE700208DF80B00FFE79DF89E
:1038B0000B0003B07047000081B0009001B070476A
:1038C00080B584B0039003980068C06802900398A4
:1038D0000068006901909DF804008007002824D545
:1038E000FFE79DF80800800700281DD5FFE7039833
:1038F00001686FF0020008610399012008770398BE
:1039000000688069800720B1FFE70398FFF7D4FFC4
:1039100006E0039800F0E2F8039800F0E3F8FFE710
:10392000039900200877FFE7FFE79DF804004007B0
:10393000002825D5FFE79DF80800400700281ED580
:10394000FFE7039801686FF0040008610399022003
:10395000087703980068806910F4407F04D0FFE77F
:103960000398FFF7A9FF06E0039800F0B7F8039863
:1039700000F0B8F8FFE7039900200877FFE7FFE7BA
:103980009DF804000007002824D5FFE79DF80800F3
:10399000000700281DD5FFE7039801686FF00800B5
:1039A000086103990420087703980068C0698007BC
:1039B00020B1FFE70398FFF77FFF06E0039800F0D0
:1039C0008DF8039800F08EF8FFE703990020087740
:1039D000FFE7FFE79DF80400C006002825D5FFE7B4
:1039E0009DF80800C00600281ED5FFE7039801686F
:1039F0006FF01000086103990820087703980068A9
:103A0000C06910F4407F04D0FFE70398FFF754FF2C
:103A100006E0039800F062F8039800F063F8FFE70F
:103A2000039900200877FFE7FFE79DF80400C0072F
:103A300078B1FFE79DF80800C00748B1FFE7039899
:103A400001686FF001000861039800F04FF8FFE78C
:103A5000FFE79DF804000006002810D5FFE79DF859
:103A600008000006002809D5FFE7039801686FF0F9
:103A7000800008610398FFF749FEFFE7FFE79DF824
:103A800004004006002810D5FFE79DF80800400616
:103A9000002809D5FFE7039801686FF0400008612E
:103AA000039800F035F8FFE7FFE79DF80400800673
:103AB000002810D5FFE79DF808008006002809D5EA
:103AC000FFE7039801686FF0200008610398FFF793
:103AD00021FEFFE7FFE704B080BD000081B0009049
:103AE00001B0704781B0009001B0704780B582B0DE
:103AF00001900198006841F20001C4F2000188427F
:103B000003D1FFE7FEF768FAFFE702B080BD0000CF
:103B100081B0009001B0704780B586B004900391E9
:103B2000ADF80A20049890F84200202848D1FFE719
:103B3000039820B1FFE7BDF80A0020B9FFE7012094
:103B40008DF8170040E004990120086304990020D3
:103B5000486304980399BDF80A2001F0C9FA8DF86A
:103B600009000498006B012821D1FFE7FFE700203E
:103B7000019004980068006801900498006840680B
:103B800001900198FFE7FFE7FFE70498006850E81D
:103B9000030F40F010000090FFE7009904980268BE
:103BA00042E803100028F0D1FFE7FFE703E001201F
:103BB0008DF80900FFE79DF809008DF8170003E074
:103BC00002208DF81700FFE79DF8170006B080BDB2
:103BD00080B582B00190ADF802100198006844F6FB
:103BE0000001C4F20001884215D1FFE740F6A84069
:103BF000C2F20000006804F06DFA40F2C830C2F270
:103C0000000000F1250140F26860C2F200002022AD
:103C1000FFF782FFFFE702B080BD000081B0009097
:103C200001B0704780B592B011901198006800689B
:103C3000109011980068C0680F9011980068406952
:103C40000E9000200D900C90109800F00F000D9039
:103C50000D9888B9FFE79DF84000800600280AD536
:103C6000FFE79DF83C008006002804D5FFE7119887
:103C700001F0ECF802E2FFE70D98002800F0C280A6
:103C8000FFE79DF83800C00738B9FFE7BDF83C00F2
:103C900010F4907F00F0B680FFE79DF84000C00769
:103CA00058B1FFE79DF83D00C00730B1FFE711991B
:103CB000486C40F001004864FFE79DF84000400771
:103CC00000280BD5FFE79DF83800C00730B1FFE7AB
:103CD0001199486C40F002004864FFE79DF84000ED
:103CE000800700280BD5FFE79DF83800C00730B1EA
:103CF000FFE71199486C40F004004864FFE79DF825
:103D000040000007002811D5FFE79DF83C00800621
:103D1000002805D4FFE79DF83800C00730B1FFE761
:103D20001199486C40F008004864FFE71198406C16
:103D3000002866D0FFE79DF84000800600280AD5DD
:103D4000FFE79DF83C008006002804D5FFE71198A6
:103D500001F07CF8FFE7119800684069C0F380101B
:103D60000C901198406C0007002804D4FFE70C98D1
:103D700000283ED0FFE7119800F0EEFF1198006890
:103D80004069400600282FD5FFE7FFE7FFE71198BD
:103D9000006850E8050F20F040000B90FFE70B99FA
:103DA0001198026842E805100028F0D1FFE7FFE70C
:103DB0001198C06B98B1FFE71198C16B44F6993028
:103DC000C0F6000008651198C06BFDF7FBFB28B139
:103DD000FFE71198C06B016D8847FFE703E011987A
:103DE000FFF71CFFFFE703E01198FFF717FFFFE75E
:103DF00006E01198FFF712FF119900204864FFE7D1
:103E0000FFE73BE11198006B012840F01781FFE7C5
:103E10009DF84000C006002840F11081FFE79DF8A2
:103E20003C00C006002840F10981FFE7FFE70020C1
:103E30000A901198006800680A901198006840681C
:103E40000A900A98FFE71198006840694006002828
:103E500040F19A80FFE71198C06B00684068ADF8A8
:103E60002600BDF82600002875D0FFE7BDF8260023
:103E70001199898D88426EDAFFE7BDF82600119905
:103E8000C8851198C06BC069B0F5807F58D0FFE736
:103E9000FFE7FFE71198006850E8030F20F48070F7
:103EA0000890FFE708991198026842E8031000287B
:103EB000F0D1FFE7FFE7FFE7FFE71198006850E860
:103EC000050F20F001000790FFE70799119802689D
:103ED00042E805100028F0D1FFE7FFE7FFE7FFE722
:103EE0001198006850E8050F20F040000690FFE7A9
:103EF00006991198026842E805100028F0D1FFE702
:103F0000FFE71199202081F84200119900200863F1
:103F1000FFE7FFE71198006850E8030F20F010005A
:103F20000590FFE705991198026842E80310002800
:103F3000F0D1FFE7FFE71198C06BFDF7CDFAFFE77F
:103F40001199022048631198818DC28D891A89B216
:103F5000FFF73EFE17E0BDF826001199898D8842D3
:103F600010D1FFE71198C06BC069B0F5807F08D110
:103F7000FFE71199022048631198818DFFF728FE11
:103F8000FFE7FFE7FFE779E01199888DC98D401AB7
:103F9000ADF812001198C08D00284ED0FFE7BDF893
:103FA0001200002849D0FFE7FFE7FFE711980068FB
:103FB00050E8030F20F490700390FFE703991198E5
:103FC000026842E803100028F0D1FFE7FFE7FFE7AF
:103FD000FFE71198006850E8050F20F001000290FB
:103FE000FFE702991198026842E805100028F0D115
:103FF000FFE7FFE71199202081F842001199002086
:104000000863FFE7FFE71198006850E8030F20F00E
:1040100010000190FFE701991198026842E803102F
:104020000028F0D1FFE7FFE71199022048631198BB
:10403000BDF81210FFF7CCFDFFE71FE09DF8400030
:10404000000600280AD5FFE79DF83C00000600287E
:1040500004D5FFE7119801F0E3F80FE09DF8400068
:10406000400600280AD5FFE79DF83C0040060028DE
:1040700004D5FFE7119800F0B9FEFFE712B080BD4C
:1040800080B582B00090009820B9FFE701208DF83C
:10409000070040E00098806908B1FFE700E0FFE713
:1040A000009890F8410040B9FFE70099002081F89E
:1040B0004000009800F034F8FFE70099242081F8D0
:1040C000410000980168C86820F40050C86000985A
:1040D00000F070FF00980168086920F490400861C2
:1040E00000980168486920F02A004861009801683A
:1040F000C86840F40050C860009900204864009AE5
:10410000202182F84110009A82F8421000994863F9
:104110008DF80700FFE79DF8070002B080BD0000A2
:1041200080B58CB00B9000200A9009900890079001
:1041300006900B98006844F60001C4F20001884222
:1041400068D1FFE7FFE70020059043F64000C4F286
:104150000200016841F480210160006800F48020C1
:1041600005900598FFE7FFE70020049043F6300034
:10417000C4F20200016841F004010160006800F02F
:10418000040004900498FFE74FF44060069002207A
:1041900007900020029008900320099007200A90C1
:1041A00040F60000C4F2020006A9FDF71BFD0299CB
:1041B00040F26850C2F20000039046F22802C4F2B6
:1041C000020202604FF0006242608160C1604FF401
:1041D0008062026141618161C16101624162FDF7FA
:1041E000A3FB18B1FFE7FCF7D5FAFFE7FFE70B9851
:1041F00040F26851C2F20001C1630B988863FFE787
:104200002720019005210022FDF7BEFF0198FDF750
:10421000B1FFFFE70CB080BD81B0009001B07047E6
:1042200081B0009001B0704781B0009001B070473C
:10423000FFE7FEE780B582B040F24050C2F20000D6
:10424000009046F20041C4F2000101600321416088
:10425000002101918160C1604FF4102202614FF48E
:1042600000124261017641768176C176017741770D
:10427000FCF742FF18B1FFE7FCF78CFAFFE702B04A
:1042800080BD000080B582B0FFE70020019043F6BA
:104290003000C4F20200016841F4001101600068BE
:1042A00000F4001001900198FFE70C200090052118
:1042B0000022FDF769FF0098FDF75CFF02B080BDAA
:1042C00080B501F001F844F6E500C0F600004DF6B7
:1042D0003062C0F60002002103F040FF40F2FC0112
:1042E000C2F20001086080BD80B594B00020139038
:1042F0001290119010900F90FFE700200E9043F65F
:104300003000C4F20200016841F00201016000685F
:1043100000F002000E900E98FFE7FFE700200D90DE
:1043200043F63000C4F20200016841F0010101606F
:10433000006800F001000D900D98FFE7FFE70020F6
:104340000C9043F63000C4F20200016841F008010D
:104350000160006800F008000C900C98FFE7FFE790
:1043600000200B9043F63000C4F20200016841F0D7
:1043700004010160006800F004000B900B98FFE757
:10438000FFE700200A9043F63000C4F20200016803
:1043900041F080010160006800F080000A900A98F6
:1043A000FFE741F60040C4F2020001904FF4806143
:1043B000009100220892FDF7F1FD0020C4F20200F6
:1043C00003901021029101220492FDF7E7FD049A67
:1043D00040F20040C4F2020006901146FDF7DEFDF7
:1043E000009B0198049A08990F93109211911291D1
:1043F0000FA90791FDF7F6FB0398049A07990F920E
:104400004FF488121092022205921192FDF7EAFBF6
:10441000DDF808C00398049B059A0799CDF83CC0C5
:10442000109311931292FDF7DDFB049B059A0698F9
:1044300007990F93109311931292FDF7D3FB089AEB
:10444000062009900521FDF79FFE0998FDF792FED1
:1044500014B080BD80B582B040F2C850C2F20000F6
:10446000019043F20001C4F2010101604FF4827136
:10447000416000218160C16002220261012242612B
:104480004FF4007282613822C2610162416281622E
:104490000A21C162FEF7FCFB18B1FFE7FCF77AF9CD
:1044A000FFE702B080BD000080B582B040F26860D6
:1044B000C2F20000019044F60001C4F20001016064
:1044C00048F2A061C0F2010141604FF48051816067
:1044D0000021C1604FF4806202610C22426181615F
:1044E000C161FFF7CDFD18B1FFE7FCF753F9FFE716
:1044F00002B080BDFFE7FEE7FFE7FEE788B0079068
:1045000006910592079800F0070004900498C0F106
:104510000700052803D3FFE70420019004E0049876
:10452000C0F107000190FFE7019803900498043060
:10453000062803D8FFE70020009003E00498033822
:104540000090FFE70098029006980399012202FA72
:1045500001F101390840029B984005999A40013ABF
:104560001140084308B07047000000000000000040
:10457000EFF30980BFF36F8F154B1A681EF0100F11
:1045800008BF20ED108A20E9F04F10602DE90900E6
:104590004FF0500080F31188BFF34F8FBFF36F8F40
:1045A00005F0D8FC4FF0000080F31188BDE8090049
:1045B00019680868B0E8F04F1EF0100F08BFB0ECA3
:1045C000108A80F30988BFF36F8F704700BF00BF68
:1045D0003008002080B586B00490039102920498C0
:1045E0004068B0F5827F13D1FFE704988068B0F58A
:1045F000004F06D0FFE704988068B0F5806F07D1C0
:10460000FFE704980168086820F040000860FFE7B1
:1046100004984068B0F5827F31D1FFE70498806844
:10462000B0F5806F15D0FFE70498039B02996A46A6
:1046300011608021002200F0A5F848B1FFE704993D
:10464000486D40F02000486503208DF817002FE0EA
:1046500014E00498039B02996A461160012100222C
:1046600000F090F848B1FFE70499486D40F0200051
:10467000486503208DF817001AE0FFE714E004985E
:10468000039B02996A4611600121002200F07AF82A
:1046900048B1FFE70499486D40F0200048650320C9
:1046A0008DF8170004E0FFE700208DF81700FFE702
:1046B0009DF8170006B080BD80B586B004900391C8
:1046C00002920498039B02996A461160022101221A
:1046D00000F058F848B1FFE70499486D40F0200019
:1046E000486503208DF8170048E040F24800C2F208
:1046F000000000684AF6AB21CAF6AA21A0FB01100F
:1047000000094DF68361C4F21B31A0FB0110800C3F
:104710004FF47A714843019004984068B0F5827F65
:1047200015D1FFE70498039B02996A461160802126
:10473000002200F027F848B1FFE70499486D40F0E7
:104740002000486503208DF8170017E012E0FFE70E
:10475000019808B9FFE70CE0019801380190FFE7E4
:10476000049800688068C1B20020B0EBD11FEFD17F
:10477000FFE7FFE700208DF81700FFE79DF817001F
:1047800006B080BD80B58AB0DDF830C008900791D2
:104790008DF81B20059305980190FDF717FC024644
:1047A00001980C99891A08440390FDF70FFC0290B8
:1047B000039840F24801C2F200010968C1F3CB310D
:1047C00048430490FFE7089800688068079908400C
:1047D000401AB0FA80F040099DF81B1088425FD063
:1047E000FFE705980130002859D0FFE7FDF7EEFB01
:1047F0000299401A0399884204D2FFE703980028DF
:1048000042D1FFE708980168486820F0E00048605E
:1048100008984068B0F5827F13D1FFE70898806858
:10482000B0F5004F06D0FFE708988068B0F5806FBC
:1048300007D1FFE708980168086820F04000086089
:10484000FFE70898806AB0F5005F0FD1FFE7FFE748
:1048500008980168086820F400500860089801680A
:10486000086840F400500860FFE7FFE7089901205E
:1048700081F85100FFE70899002081F85000FFE718
:1048800003208DF827000FE0049818B9FFE70020F7
:10489000039003E0049801380490FFE7FFE792E7F4
:1048A00000208DF82700FFE79DF827000AB080BDA3
:1048B000074B19680868B0E8F04F80F30988BFF328
:1048C0006F8F4FF0000080F31188704700BF00BF6A
:1048D0003008002080B56FF00400002102F0C0FD18
:1048E00080BD000080B582B00190FFE7012003F099
:1048F00061F9FBE780B54EF21000CEF200000068CF
:1049000006F0A4FD012803D0FFE705F001FEFFE754
:1049100080BD000080B594B008A83021FBF76BFD86
:10492000002007900690059004900390FFE7002078
:10493000029043F64000C4F20200016841F0805149
:104940000160006800F0805002900298FFE7FFE7E6
:104950000020019047F20000C4F20000016841F419
:1049600080410160006800F4804001900198FFE7F9
:10497000012008904FF48030099002200E904FF4EF
:1049800080010F9106211091A8211191129004200D
:10499000139008A8FDF714FE18B1FFE7FBF7FAFE25
:1049A000FFE70F20039002200490002005904FF4B1
:1049B000A05006904FF48050079003A80521FDF702
:1049C00005FC18B1FFE7FBF7E5FEFFE714B080BD7B
:1049D0004EF68851CEF20001086840F4700008607D
:1049E0007047000080B540F22060C2F20000FEF780
:1049F00067FF80BD83B0029001910298006800902B
:104A000002980021C4F20101884225D0FFE70298F4
:104A1000B0F1804F20D0FFE7029840F20041C4F28D
:104A20000001884218D0FFE7029840F60001C4F266
:104A30000001884210D0FFE7029840F60041C4F21E
:104A40000001884208D0FFE7029840F20041C4F21A
:104A5000010188420AD1FFE7009820F07000009021
:104A600001984168009808430090FFE702980021F0
:104A7000C4F20101884255D0FFE70298B0F1804F9F
:104A800050D0FFE7029840F20041C4F20001884292
:104A900048D0FFE7029840F60001C4F200018842C6
:104AA00040D0FFE7029840F60041C4F2000188427E
:104AB00038D0FFE7029840F20041C4F20101884279
:104AC00030D0FFE7029844F20001C4F201018842AD
:104AD00028D0FFE7029844F20041C4F20101884265
:104AE00020D0FFE7029844F60001C4F20101884299
:104AF00018D0FFE7029841F60001C4F20001884295
:104B000010D0FFE7029841F60041C4F2000188424C
:104B100008D0FFE7029842F20001C4F20001884287
:104B20000AD1FFE7009820F4407000900198C16816
:104B3000009808430090FFE7009820F0800001995A
:104B4000496908430090019880680299C8620198F9
:104B500000680299886202980021C4F2010188422B
:104B600008D0FFE7029840F20041C4F201018842F8
:104B700005D1FFE70198006902990863FFE70299F0
:104B8000086840F00400086002990120486100981C
:104B90000299086003B0704780B582B00190019817
:104BA000806B009000990020C8850098FFF736F8C8
:104BB00002B080BD80B584B00390002002900398BD
:104BC000806B0190019800684069C0B2C0090290F2
:104BD000019890F8410021280AD1FFE7029838B1E6
:104BE000FFE701990020C884019800F013F9FFE75E
:104BF000019800684069C0F380100290019890F815
:104C0000420022280AD1FFE7029838B1FFE7019954
:104C10000020C885019800F09FF8FFE70199486CD3
:104C200040F0100048640198FEF7F8FF04B080BD22
:104C300080B586B005900598806B04900598006853
:104C40000068C00500285AD4FFE704990020C885F1
:104C5000FFE7FFE70498006850E8030F20F4807036
:104C60000390FFE703990498026842E803100028C4
:104C7000F0D1FFE7FFE7FFE7FFE70498006850E89F
:104C8000050F20F001000290FFE7029904980268E6
:104C900042E805100028F0D1FFE7FFE7FFE7FFE754
:104CA0000498006850E8050F20F040000190FFE7ED
:104CB00001990498026842E805100028F0D1FFE746
:104CC000FFE70499202081F842000498006B012836
:104CD00014D1FFE7FFE7FFE70498006850E8030FEF
:104CE00020F010000090FFE700990498026842E865
:104CF00003100028F0D1FFE7FFE7FFE7FFE7049983
:104D0000002048630498006B012805D1FFE7049850
:104D1000818DFEF75DFF03E00498FFF77DFAFFE762
:104D200006B080BD80B582B001900198806B009084
:104D30000099012048630098006B012806D1FFE725
:104D40000098818D4908FEF743FF03E00098FFF7C4
:104D500067FAFFE702B080BD84B00390FFE7FFE78A
:104D60000398006850E8030F20F490700290FFE76A
:104D700002990398026842E803100028F0D1FFE787
:104D8000FFE7FFE7FFE70398006850E8050F20F012
:104D900001000190FFE701990398026842E80510BD
:104DA0000028F0D1FFE7FFE70398006B012814D13A
:104DB000FFE7FFE7FFE70398006850E8030F20F0E4
:104DC00010000090FFE700990398026842E8031082
:104DD0000028F0D1FFE7FFE7FFE70399202081F8E3
:104DE000420003990020086304B0704780B582B088
:104DF000019001980168C86820F04000C8600199DE
:104E0000202081F841000198FFF70EFA002002B03F
:104E100080BD000082B00190FFE7FFE701980068C5
:104E200050E8030F20F0C0000090FFE700990198C0
:104E3000026842E803100028F0D1FFE7FFE701997C
:104E4000202081F8410002B07047000080B586B094
:104E50000490002003900290049890F842002228C9
:104E600040F0A080FFE704988068B0F5805F13D120
:104E7000FFE70498006978B9FFE70498806A029018
:104E80000498006840686FF35F20029908800499D5
:104E9000886A0230886223E00498806A039004984C
:104EA0008068B0F5805F08D0FFE70498806850B94B
:104EB000FFE70498006930B9FFE70498006840688C
:104EC0000399087007E004980068406800F07F00CC
:104ED00003990870FFE70499886A01308862FFE748
:104EE0000499C88D0138C8850004002856D1FFE711
:104EF00004980168C86820F02000C8600498016820
:104F0000C86820F48070C86004980168486920F07F
:104F1000010048610499202081F842000499002092
:104F200048630498006B012830D1FFE70499002002
:104F30000863FFE7FFE70498006850E8030F20F0DC
:104F400010000190FFE701990498026842E80310FD
:104F50000028F0D1FFE7FFE7049800680068C0066A
:104F600000280ED5FFE7FFE70020009004980068B6
:104F70000068009004980068406800900098FFE77F
:104F8000FFE70498818DFEF723FE03E00498FFF706
:104F900043F9FFE700208DF8170007E000208DF8A7
:104FA000170003E002208DF81700FFE79DF81700B7
:104FB00006B080BD80B586B0059005980068006990
:104FC00020F44050059A1168D26810430861059991
:104FD00088680B694A69C9691843104308430490FB
:104FE00005980068C06849F20C6188430499084339
:104FF00005990968C86005980068406920F4407008
:10500000059A11689269104348610598006841F259
:105010000001C4F20101884209D0FFE70598006849
:1050200041F20041C4F20101884204D1FFE7FDF7DB
:1050300041FA039003E0FDF72BFA0390FFE7059890
:10504000C069B0F5004F29D1FFE703981921A0FBF3
:105050000101059A1368029353685A00DB0FFBF7AE
:1050600005F90299864648F21F53C5F2EB13AEFBD1
:105070000320420910014FF0640C02FB1CEC3222A9
:1050800002EBCC02A2FB0332F82303EA521300EB3B
:105090004300C2F342121044886026E003981921AD
:1050A000A0FB0101059A1368019353689A009B0FB6
:1050B000FBF7DCF80199844648F21F52C5F2EB1267
:1050C000ACFB02304309642003FB10CC322000EB20
:1050D0000C10A0FB0202F02000EA521000EB0310BB
:1050E000C2F3431210448860FFE706B080BD0000A1
:1050F00080B58AB008900791ADF81A2007980899F2
:105100008862BDF81A0008998885089900204864CB
:10511000089A222182F842100899CA6B44F631415C
:10512000C0F60001D1630899CA6B44F62551C0F658
:10513000000111640899CA6B44F6B531C0F600014C
:10514000D1640899C96B086507A80590089801689B
:10515000C06B0431059A1268BDF81A30FCF79CFC4C
:1051600058B1FFE70899102048640899202081F879
:10517000420001208DF827004EE0FFE70020049058
:1051800008980068006804900898006840680490D7
:105190000498FFE708980069A0B1FFE7FFE7FFE781
:1051A0000898006850E8030F40F480700390FFE710
:1051B00003990898026842E803100028F0D1FFE73D
:1051C000FFE7FFE7FFE7FFE70898006850E8050FF3
:1051D00040F001000290FFE702990898026842E857
:1051E00005100028F0D1FFE7FFE7FFE7FFE7089889
:1051F000006850E8050F40F040000190FFE701997A
:105200000898026842E805100028F0D1FFE7FFE7A0
:1052100000208DF82700FFE79DF827000AB080BD29
:1052200083B00190019890F8410021283AD1FFE71E
:1052300001988068B0F5805F13D1FFE7019800699D
:1052400078B9FFE70198006A0090009800886FF332
:105250005F200199096848600199086A0230086274
:1052600008E0019A106A411C1162007801990968EE
:105270004860FFE70199C88C0138C884000468B908
:10528000FFE701980168C86820F08000C8600198B5
:105290000168C86840F04000C860FFE700208DF852
:1052A0000B0003E002208DF80B00FFE79DF80B00D8
:1052B00003B0704780B540F26860C2F20000FEF7AC
:1052C000B1FC80BDFFE7FEE7B0B5A6B002F0BEFBC3
:1052D0000120009000220192114602F05DFE019A29
:1052E0000146009840F2B463C2F20003196011460F
:1052F00002F052FE0146019840F6A842C2F20002B6
:10530000116002F09DFC019940F6BC42C2F200021D
:1053100010604DF6A453C0F6000318685A68D3F81D
:1053200008C0D3F80CE01C695D6922952194CDF882
:1053300080E0CDF87CC01E921D909869DA691B6AE6
:105340002593249223904DF68053C0F600031868ED
:105350005A68D3F808C0D3F80CE01C695D69199548
:105360001894CDF85CE0CDF858C015921490986967
:10537000DA691B6A1C931B921A904DF6C853C0F64B
:10538000000318685A68D3F808C0D3F80CE01C6909
:105390005D6910950F94CDF838E0CDF834C00C92CB
:1053A0000B909869DA691B6A1393129211904DF66B
:1053B000EC53C0F6000318685A68D3F808C0D3F855
:1053C0000CE01C695D6907950694CDF814E0CDF8F2
:1053D00010C0039202909869DA691B6A0A930992D5
:1053E000089045F2F940C0F600001DAA02F0B6FE92
:1053F000019940F2B062C2F20002106045F2B97049
:10540000C0F6000014AA02F0A9FE019940F2F802C9
:10541000C2F20002106045F25970C0F600000BAAFB
:1054200002F09CFE40F2B861C2F20001086026B0B2
:10543000B0BD000080B502F053F802F06DF802F044
:105440008BF802F0A5F802F0C1F802F09FF902F023
:105450008FFA02F099FA80BD83B002900191009218
:10546000029890ED000A019890ED001A30EE010AC2
:10547000009880ED000A029890ED010A019890EDE5
:10548000011A30EE010A009880ED010A029890EDB1
:10549000020A019890ED021A30EE010A009880EDA0
:1054A000020A03B07047000083B00290019100929D
:1054B000029890ED000A019890ED001A30EE410A32
:1054C000009880ED000A029890ED010A019890ED95
:1054D000011A30EE410A009880ED010A029890ED21
:1054E000020A019890ED021A30EE410A009880ED10
:1054F000020A03B07047000080B588B0079004A886
:105500009FED1B1AB0EE410AF0EE410A00F0E6FAF8
:1055100004980599069A0392029101909DED010A63
:10552000DDED020A9DED031A40F20010C2F2000008
:1055300000F034FE40F6BC40C2F2000000680121D9
:1055400002F0C2FBFFE740F20010C2F20000009040
:1055500000F09EFB009800F05BFE40F2B460C2F2E7
:105560000000006802F0B6FD0A2002F023FBEAE723
:105570000000000080B582B00190019890ED001A03
:1055800090ED012A90ED020A22EE022A21EE011A84
:1055900031EE021A20EE000A30EE010A07F0A0FBFD
:1055A00002B080BD80B582B00190019890ED002AD4
:1055B00090ED013A90ED021A90ED030A23EE033AC2
:1055C00022EE022A32EE032A21EE011A31EE021AED
:1055D00020EE000A30EE010A07F082FB02B080BD27
:1055E00080B584B0039002910398FFF7DBFF8DED47
:1055F000010A9DED010A9FED221AB4EE410AF1EE77
:1056000010FA29DDFFE7039890ED000A9DED011ADD
:1056100080EE010A029880ED000A039890ED010ADD
:105620009DED011A80EE010A029880ED010A0398AF
:1056300090ED020A9DED011A80EE010A029880EDBC
:10564000020A039890ED030A9DED011A80EE010A0B
:10565000029880ED030A10E0039800680299086040
:1056600003984068029948600398806802998860AE
:105670000398C0680299C860FFE704B080BD00BF0E
:1056800077CC2B3283B0029001910092029801995D
:1056900091ED013A91ED022A90ED010A90ED021A86
:1056A00021EE031A20EE020A30EE410A009880ED46
:1056B000000A029890ED001A90ED020A019890ED10
:1056C000002A90ED023A21EE031A20EE020A30EE93
:1056D000410A009880ED010A0298019991ED003A83
:1056E00091ED012A90ED000A90ED011A21EE031AC6
:1056F00020EE020A30EE410A009880ED020A03B063
:105700007047000082B001900091019800680099F4
:1057100008600198C0680099486001988069009904
:105720008860019840680099C860019800690099F4
:1057300008610198C06900994861019880680099E2
:105740008861019840690099C8610198006A0099D0
:10575000086202B07047000080B582B00190FFE798
:1057600002F064FB009040F2C420C2F20000007816
:10577000C00738B9FFE740F2C420C2F2000001F0D0
:10578000DFF9FFE740F23040C2F200000078C007C6
:1057900038B9FFE740F23040C2F2000001F0D0F922
:1057A000FFE740F24050C2F2000001F0BFF800985D
:1057B000013002F019FAD3E780B594B0139040F2AB
:1057C000C830C2F2000000F1250140F26860C2F268
:1057D00000002022FEF7A0F9002005901290119001
:1057E00040F2C420C2F2000006909FED7B0ADFED7C
:1057F0007B0A01F08BF8059A40F6BC40C2F200002B
:10580000006801214FF0FF3302F0A0FA4FF4FA7064
:1058100002F0D0F9069801F043F840F23040C2F2AD
:10582000000001F03DF8FFE740F2B460C2F2000072
:1058300000684FF0FF3102F05BFB002840F0CA80A7
:10584000FFE740F6A840C2F200000068002102F025
:105850004FFB80B9FFE740F2F401C2F200010020E3
:10586000086040F2C830C2F2000000F125011222A7
:1058700000F05EF907E040F2F401C2F200010868AE
:1058800001300860FFE740F2F400C2F20000006857
:1058900033280CDBFFE740F2C421C2F200010120F3
:1058A000087040F23041C2F200010870FFE740F298
:1058B000C831C2F2000109A8049000F0A7F90498C9
:1058C00010901098007C022823D1FFE740F2C420FA
:1058D000C2F2000002900121017040F23042C2F297
:1058E0000002039211709FED400A8DED010A01F054
:1058F000C7F99DED010A039801F0C2F9029801F081
:10590000B7F903988DED120A01F0B2F98DED110A85
:105910005FE01098007C01285AD1FFE740F2C421D3
:10592000C2F200010020087040F23041C2F20001D2
:1059300008701098006808901098806807909DED96
:10594000080A9FED271A20EE010A8DED110A9DED40
:10595000070A9FED241A20EE010A8DED120A9DED33
:10596000120A9FED1E1AB4EE410AF1EE10FA05DD9F
:10597000FFE70020C4F2B4201290FFE79DED120A69
:105980009FED151AB4EE410AF1EE10FA05DAFFE7C1
:105990000020CCF2B4201290FFE79DED120A40F2F5
:1059A000C420C2F200009FED101A8DED001AF0EE37
:1059B000410A00F03DFF9DED001A9DED110A40F2F5
:1059C0003040C2F20000F0EE410A00F031FFFFE784
:1059D000FFE7FFE728E700BF0000B4C20000B442C1
:1059E00000002A4300005C420000000083B00290E7
:1059F000019100920299019891ED001A91ED013AFE
:105A000091ED020A90ED004A90ED015A90ED022AC4
:105A100023EE053A21EE041A31EE031A20EE020AB3
:105A200030EE010A009880ED000A0299019891ED8C
:105A3000031A91ED043A91ED050A90ED004A90EDBC
:105A4000015A90ED022A23EE053A21EE041A31EEB6
:105A5000031A20EE020A30EE010A009880ED010AD6
:105A60000299019891ED061A91ED073A91ED080A15
:105A700090ED004A90ED015A90ED022A23EE053A8E
:105A800021EE041A31EE031A20EE020A30EE010A6A
:105A9000009880ED020A03B07047000080B584B022
:105AA00003900291039807F0D7FC41EC100B8DEDA9
:105AB000000B029807F0D0FC9DED000B41EC110BA0
:105AC00006F0DEFA04B080BD81B08DED000A9DEDD8
:105AD000000AB0EEC00A01B07047000084B0039025
